{
  "_format": "hh-sol-artifact-1",
  "contractName": "StakeStationFarm",
  "sourceName": "contracts/LPFarming.sol",
  "abi": [
    {
      "inputs": [
        {
          "internalType": "address",
          "name": "_rewardtoken",
          "type": "address"
        },
        {
          "internalType": "address",
          "name": "_reflectionToken",
          "type": "address"
        },
        {
          "internalType": "uint256",
          "name": "_rewardPerBlock",
          "type": "uint256"
        },
        {
          "internalType": "bool",
          "name": "_hasDividend",
          "type": "bool"
        }
      ],
      "stateMutability": "nonpayable",
      "type": "constructor"
    },
    {
      "anonymous": false,
      "inputs": [
        {
          "indexed": true,
          "internalType": "address",
          "name": "user",
          "type": "address"
        },
        {
          "indexed": true,
          "internalType": "uint256",
          "name": "pid",
          "type": "uint256"
        },
        {
          "indexed": false,
          "internalType": "uint256",
          "name": "amount",
          "type": "uint256"
        }
      ],
      "name": "Deposit",
      "type": "event"
    },
    {
      "anonymous": false,
      "inputs": [
        {
          "indexed": true,
          "internalType": "address",
          "name": "user",
          "type": "address"
        },
        {
          "indexed": true,
          "internalType": "uint256",
          "name": "pid",
          "type": "uint256"
        },
        {
          "indexed": false,
          "internalType": "uint256",
          "name": "amount",
          "type": "uint256"
        }
      ],
      "name": "EmergencyWithdraw",
      "type": "event"
    },
    {
      "anonymous": false,
      "inputs": [
        {
          "indexed": true,
          "internalType": "address",
          "name": "previousOwner",
          "type": "address"
        },
        {
          "indexed": true,
          "internalType": "address",
          "name": "newOwner",
          "type": "address"
        }
      ],
      "name": "OwnershipTransferred",
      "type": "event"
    },
    {
      "anonymous": false,
      "inputs": [
        {
          "indexed": true,
          "internalType": "address",
          "name": "user",
          "type": "address"
        },
        {
          "indexed": false,
          "internalType": "address",
          "name": "newAddress",
          "type": "address"
        }
      ],
      "name": "SetBuyBackWallet",
      "type": "event"
    },
    {
      "anonymous": false,
      "inputs": [
        {
          "indexed": true,
          "internalType": "address",
          "name": "user",
          "type": "address"
        },
        {
          "indexed": true,
          "internalType": "address",
          "name": "newAddress",
          "type": "address"
        }
      ],
      "name": "SetFeeAddress",
      "type": "event"
    },
    {
      "anonymous": false,
      "inputs": [
        {
          "indexed": false,
          "internalType": "uint256",
          "name": "fee",
          "type": "uint256"
        }
      ],
      "name": "SetPerformanceFee",
      "type": "event"
    },
    {
      "anonymous": false,
      "inputs": [
        {
          "indexed": false,
          "internalType": "uint256",
          "name": "pid",
          "type": "uint256"
        },
        {
          "indexed": false,
          "internalType": "uint256",
          "name": "allocPoint",
          "type": "uint256"
        },
        {
          "indexed": false,
          "internalType": "address",
          "name": "lpToken",
          "type": "address"
        },
        {
          "indexed": false,
          "internalType": "uint16",
          "name": "depositFee",
          "type": "uint16"
        },
        {
          "indexed": false,
          "internalType": "uint16",
          "name": "withdrawFee",
          "type": "uint16"
        },
        {
          "indexed": false,
          "internalType": "bool",
          "name": "withUpdate",
          "type": "bool"
        }
      ],
      "name": "SubFarmCreated",
      "type": "event"
    },
    {
      "anonymous": false,
      "inputs": [
        {
          "indexed": true,
          "internalType": "address",
          "name": "user",
          "type": "address"
        },
        {
          "indexed": false,
          "internalType": "uint256",
          "name": "rewardPerBlock",
          "type": "uint256"
        }
      ],
      "name": "UpdateEmissionRate",
      "type": "event"
    },
    {
      "anonymous": false,
      "inputs": [
        {
          "indexed": true,
          "internalType": "address",
          "name": "user",
          "type": "address"
        },
        {
          "indexed": true,
          "internalType": "uint256",
          "name": "pid",
          "type": "uint256"
        },
        {
          "indexed": false,
          "internalType": "uint256",
          "name": "amount",
          "type": "uint256"
        }
      ],
      "name": "Withdraw",
      "type": "event"
    },
    {
      "inputs": [],
      "name": "BONUS_MULTIPLIER",
      "outputs": [
        {
          "internalType": "uint256",
          "name": "",
          "type": "uint256"
        }
      ],
      "stateMutability": "view",
      "type": "function"
    },
    {
      "inputs": [],
      "name": "accReflectionPerPoint",
      "outputs": [
        {
          "internalType": "uint256",
          "name": "",
          "type": "uint256"
        }
      ],
      "stateMutability": "view",
      "type": "function"
    },
    {
      "inputs": [
        {
          "internalType": "uint256",
          "name": "_allocPoint",
          "type": "uint256"
        },
        {
          "internalType": "address",
          "name": "_lpToken",
          "type": "address"
        },
        {
          "internalType": "uint16",
          "name": "_depositFee",
          "type": "uint16"
        },
        {
          "internalType": "uint16",
          "name": "_withdrawFee",
          "type": "uint16"
        },
        {
          "internalType": "bool",
          "name": "_withUpdate",
          "type": "bool"
        }
      ],
      "name": "add",
      "outputs": [],
      "stateMutability": "nonpayable",
      "type": "function"
    },
    {
      "inputs": [],
      "name": "availableDividendTokens",
      "outputs": [
        {
          "internalType": "uint256",
          "name": "",
          "type": "uint256"
        }
      ],
      "stateMutability": "view",
      "type": "function"
    },
    {
      "inputs": [],
      "name": "availableRewardTokens",
      "outputs": [
        {
          "internalType": "uint256",
          "name": "",
          "type": "uint256"
        }
      ],
      "stateMutability": "view",
      "type": "function"
    },
    {
      "inputs": [],
      "name": "buyBackWallet",
      "outputs": [
        {
          "internalType": "address",
          "name": "",
          "type": "address"
        }
      ],
      "stateMutability": "view",
      "type": "function"
    },
    {
      "inputs": [
        {
          "internalType": "uint256",
          "name": "_pid",
          "type": "uint256"
        },
        {
          "internalType": "uint256",
          "name": "_amount",
          "type": "uint256"
        }
      ],
      "name": "deposit",
      "outputs": [],
      "stateMutability": "payable",
      "type": "function"
    },
    {
      "inputs": [
        {
          "internalType": "uint256",
          "name": "_amount",
          "type": "uint256"
        }
      ],
      "name": "depositRewards",
      "outputs": [],
      "stateMutability": "nonpayable",
      "type": "function"
    },
    {
      "inputs": [
        {
          "internalType": "uint256",
          "name": "_pid",
          "type": "uint256"
        }
      ],
      "name": "emergencyWithdraw",
      "outputs": [],
      "stateMutability": "nonpayable",
      "type": "function"
    },
    {
      "inputs": [],
      "name": "emergencyWithdrawReflections",
      "outputs": [],
      "stateMutability": "nonpayable",
      "type": "function"
    },
    {
      "inputs": [
        {
          "internalType": "uint256",
          "name": "_amount",
          "type": "uint256"
        }
      ],
      "name": "emergencyWithdrawRewards",
      "outputs": [],
      "stateMutability": "nonpayable",
      "type": "function"
    },
    {
      "inputs": [],
      "name": "feeAddress",
      "outputs": [
        {
          "internalType": "address",
          "name": "",
          "type": "address"
        }
      ],
      "stateMutability": "view",
      "type": "function"
    },
    {
      "inputs": [
        {
          "internalType": "uint256",
          "name": "_from",
          "type": "uint256"
        },
        {
          "internalType": "uint256",
          "name": "_to",
          "type": "uint256"
        }
      ],
      "name": "getMultiplier",
      "outputs": [
        {
          "internalType": "uint256",
          "name": "",
          "type": "uint256"
        }
      ],
      "stateMutability": "pure",
      "type": "function"
    },
    {
      "inputs": [],
      "name": "hasDividend",
      "outputs": [
        {
          "internalType": "bool",
          "name": "",
          "type": "bool"
        }
      ],
      "stateMutability": "view",
      "type": "function"
    },
    {
      "inputs": [],
      "name": "massUpdatePools",
      "outputs": [],
      "stateMutability": "nonpayable",
      "type": "function"
    },
    {
      "inputs": [],
      "name": "owner",
      "outputs": [
        {
          "internalType": "address",
          "name": "",
          "type": "address"
        }
      ],
      "stateMutability": "view",
      "type": "function"
    },
    {
      "inputs": [
        {
          "internalType": "uint256",
          "name": "_pid",
          "type": "uint256"
        },
        {
          "internalType": "address",
          "name": "_user",
          "type": "address"
        }
      ],
      "name": "pendingReflections",
      "outputs": [
        {
          "internalType": "uint256",
          "name": "",
          "type": "uint256"
        }
      ],
      "stateMutability": "view",
      "type": "function"
    },
    {
      "inputs": [
        {
          "internalType": "uint256",
          "name": "_pid",
          "type": "uint256"
        },
        {
          "internalType": "address",
          "name": "_user",
          "type": "address"
        }
      ],
      "name": "pendingRewards",
      "outputs": [
        {
          "internalType": "uint256",
          "name": "",
          "type": "uint256"
        }
      ],
      "stateMutability": "view",
      "type": "function"
    },
    {
      "inputs": [],
      "name": "performanceFee",
      "outputs": [
        {
          "internalType": "uint256",
          "name": "",
          "type": "uint256"
        }
      ],
      "stateMutability": "view",
      "type": "function"
    },
    {
      "inputs": [
        {
          "internalType": "contract IERC20",
          "name": "",
          "type": "address"
        }
      ],
      "name": "poolExistence",
      "outputs": [
        {
          "internalType": "bool",
          "name": "",
          "type": "bool"
        }
      ],
      "stateMutability": "view",
      "type": "function"
    },
    {
      "inputs": [
        {
          "internalType": "uint256",
          "name": "",
          "type": "uint256"
        }
      ],
      "name": "poolInfo",
      "outputs": [
        {
          "internalType": "contract IERC20",
          "name": "lpToken",
          "type": "address"
        },
        {
          "internalType": "uint256",
          "name": "allocPoint",
          "type": "uint256"
        },
        {
          "internalType": "uint256",
          "name": "lastRewardBlock",
          "type": "uint256"
        },
        {
          "internalType": "uint256",
          "name": "accTokenPerShare",
          "type": "uint256"
        },
        {
          "internalType": "uint256",
          "name": "accReflectionPerShare",
          "type": "uint256"
        },
        {
          "internalType": "uint256",
          "name": "lastReflectionPerPoint",
          "type": "uint256"
        },
        {
          "internalType": "uint16",
          "name": "depositFee",
          "type": "uint16"
        },
        {
          "internalType": "uint16",
          "name": "withdrawFee",
          "type": "uint16"
        }
      ],
      "stateMutability": "view",
      "type": "function"
    },
    {
      "inputs": [],
      "name": "poolLength",
      "outputs": [
        {
          "internalType": "uint256",
          "name": "",
          "type": "uint256"
        }
      ],
      "stateMutability": "view",
      "type": "function"
    },
    {
      "inputs": [
        {
          "internalType": "address",
          "name": "_token",
          "type": "address"
        }
      ],
      "name": "recoverWrongToken",
      "outputs": [],
      "stateMutability": "nonpayable",
      "type": "function"
    },
    {
      "inputs": [],
      "name": "reflectionToken",
      "outputs": [
        {
          "internalType": "contract IERC20",
          "name": "",
          "type": "address"
        }
      ],
      "stateMutability": "view",
      "type": "function"
    },
    {
      "inputs": [],
      "name": "renounceOwnership",
      "outputs": [],
      "stateMutability": "nonpayable",
      "type": "function"
    },
    {
      "inputs": [],
      "name": "rewardPerBlock",
      "outputs": [
        {
          "internalType": "uint256",
          "name": "",
          "type": "uint256"
        }
      ],
      "stateMutability": "view",
      "type": "function"
    },
    {
      "inputs": [],
      "name": "rewardtoken",
      "outputs": [
        {
          "internalType": "contract IERC20",
          "name": "",
          "type": "address"
        }
      ],
      "stateMutability": "view",
      "type": "function"
    },
    {
      "inputs": [
        {
          "internalType": "uint256",
          "name": "_pid",
          "type": "uint256"
        },
        {
          "internalType": "uint256",
          "name": "_allocPoint",
          "type": "uint256"
        },
        {
          "internalType": "uint16",
          "name": "_depositFee",
          "type": "uint16"
        },
        {
          "internalType": "uint16",
          "name": "_withdrawFee",
          "type": "uint16"
        },
        {
          "internalType": "bool",
          "name": "_withUpdate",
          "type": "bool"
        }
      ],
      "name": "set",
      "outputs": [],
      "stateMutability": "nonpayable",
      "type": "function"
    },
    {
      "inputs": [
        {
          "internalType": "address",
          "name": "_addr",
          "type": "address"
        }
      ],
      "name": "setBuyBackWallet",
      "outputs": [],
      "stateMutability": "nonpayable",
      "type": "function"
    },
    {
      "inputs": [
        {
          "internalType": "address",
          "name": "_feeAddress",
          "type": "address"
        }
      ],
      "name": "setFeeAddress",
      "outputs": [],
      "stateMutability": "nonpayable",
      "type": "function"
    },
    {
      "inputs": [
        {
          "internalType": "uint256",
          "name": "_fee",
          "type": "uint256"
        }
      ],
      "name": "setPerformanceFee",
      "outputs": [],
      "stateMutability": "nonpayable",
      "type": "function"
    },
    {
      "inputs": [],
      "name": "startBlock",
      "outputs": [
        {
          "internalType": "uint256",
          "name": "",
          "type": "uint256"
        }
      ],
      "stateMutability": "view",
      "type": "function"
    },
    {
      "inputs": [],
      "name": "totalAllocPoint",
      "outputs": [
        {
          "internalType": "uint256",
          "name": "",
          "type": "uint256"
        }
      ],
      "stateMutability": "view",
      "type": "function"
    },
    {
      "inputs": [
        {
          "internalType": "address",
          "name": "newOwner",
          "type": "address"
        }
      ],
      "name": "transferOwnership",
      "outputs": [],
      "stateMutability": "nonpayable",
      "type": "function"
    },
    {
      "inputs": [
        {
          "internalType": "uint256",
          "name": "_rewardPerBlock",
          "type": "uint256"
        }
      ],
      "name": "updateEmissionRate",
      "outputs": [],
      "stateMutability": "nonpayable",
      "type": "function"
    },
    {
      "inputs": [
        {
          "internalType": "uint256",
          "name": "_pid",
          "type": "uint256"
        }
      ],
      "name": "updatePool",
      "outputs": [],
      "stateMutability": "nonpayable",
      "type": "function"
    },
    {
      "inputs": [
        {
          "internalType": "uint256",
          "name": "_startBlock",
          "type": "uint256"
        }
      ],
      "name": "updateStartBlock",
      "outputs": [],
      "stateMutability": "nonpayable",
      "type": "function"
    },
    {
      "inputs": [
        {
          "internalType": "uint256",
          "name": "",
          "type": "uint256"
        },
        {
          "internalType": "address",
          "name": "",
          "type": "address"
        }
      ],
      "name": "userInfo",
      "outputs": [
        {
          "internalType": "uint256",
          "name": "amount",
          "type": "uint256"
        },
        {
          "internalType": "uint256",
          "name": "rewardDebt",
          "type": "uint256"
        },
        {
          "internalType": "uint256",
          "name": "reflectionDebt",
          "type": "uint256"
        }
      ],
      "stateMutability": "view",
      "type": "function"
    },
    {
      "inputs": [
        {
          "internalType": "uint256",
          "name": "_pid",
          "type": "uint256"
        },
        {
          "internalType": "uint256",
          "name": "_amount",
          "type": "uint256"
        }
      ],
      "name": "withdraw",
      "outputs": [],
      "stateMutability": "nonpayable",
      "type": "function"
    },
    {
      "stateMutability": "payable",
      "type": "receive"
    }
  ],
  "bytecode": "0x6080604052600880546001600160a01b0319167311f92bbcb91208566edf221bc440c2700c5b1ef71790556601c6bf526340006009556000600c553480156200004757600080fd5b5060405162003310380380620033108339810160408190526200006a9162000176565b6200007533620000f4565b60018055600280546001600160a01b03199081166001600160a01b03878116919091179092556003805482169286169290921790915560068390556005805460ff191683151517905560078054339216919091179055620000e643620d2f0062000144602090811b6200284617901c565b600d5550620001f792505050565b600080546001600160a01b038381166001600160a01b0319831681178455604051919092169283917f8be0079c531659141344cd1fd0a4f28419497f9722a3daafe3b4186f6b6457e09190a35050565b6000620001528284620001d0565b9392505050565b80516001600160a01b03811681146200017157600080fd5b919050565b600080600080608085870312156200018d57600080fd5b620001988562000159565b9350620001a86020860162000159565b92506040850151915060608501518015158114620001c557600080fd5b939692955090935050565b60008219821115620001f257634e487b7160e01b600052601160045260246000fd5b500190565b61310980620002076000396000f3fe6080604052600436106102345760003560e01c806370897b231161012e57806393f1a40b116100ab578063cbd258b51161006f578063cbd258b5146106c0578063d18df53c146106f0578063e2bbb15814610710578063f2fde38b14610723578063fac2b9ba1461074357600080fd5b806393f1a40b146105df5780639f94e27214610641578063a4640b8214610656578063a5bfd0f214610676578063bc6a9e01146106a057600080fd5b80638aa28550116100f25780638aa28550146105565780638ae39cac1461056b5780638bdf67f2146105815780638da5cb5b146105a15780638dbb1e3a146105bf57600080fd5b806370897b23146104cb578063715018a6146104eb5780638705fcd414610500578063876ba4b714610520578063877887821461054057600080fd5b806341275358116101bc5780635312ea8e116101805780635312ea8e1461044b5780635dde4a911461046b578063630b5ba114610480578063671882b0146104955780636dff132e146104ab57600080fd5b806341275358146103b5578063441a3e70146103d557806348cd4cb1146103f55780634a7fa0211461040b57806351eb05a61461042b57600080fd5b80631526fe27116102035780631526fe27146102bb57806317caf6f1146103275780631cd348c01461033d5780631d97e4fc1461037557806330409c851461039557600080fd5b8063015d523814610240578063018bcf5c14610257578063081e3eda146102775780630ba84cd21461029b57600080fd5b3661023b57005b600080fd5b34801561024c57600080fd5b50610255610763565b005b34801561026357600080fd5b50610255610272366004612d7f565b6108be565b34801561028357600080fd5b50600a545b6040519081526020015b60405180910390f35b3480156102a757600080fd5b506102556102b6366004612d9c565b610b04565b3480156102c757600080fd5b506102db6102d6366004612d9c565b610b74565b604080516001600160a01b0390991689526020890197909752958701949094526060860192909252608085015260a084015261ffff90811660c08401521660e082015261010001610292565b34801561033357600080fd5b50610288600c5481565b34801561034957600080fd5b5060085461035d906001600160a01b031681565b6040516001600160a01b039091168152602001610292565b34801561038157600080fd5b50610255610390366004612dd5565b610bdb565b3480156103a157600080fd5b506102556103b0366004612d9c565b610fa7565b3480156103c157600080fd5b5060075461035d906001600160a01b031681565b3480156103e157600080fd5b506102556103f0366004612e39565b611059565b34801561040157600080fd5b50610288600d5481565b34801561041757600080fd5b50610255610426366004612e5b565b611488565b34801561043757600080fd5b50610255610446366004612d9c565b611603565b34801561045757600080fd5b50610255610466366004612d9c565b6117f6565b34801561047757600080fd5b506102886118c8565b34801561048c57600080fd5b506102556119aa565b3480156104a157600080fd5b5061028860045481565b3480156104b757600080fd5b5060025461035d906001600160a01b031681565b3480156104d757600080fd5b506102556104e6366004612d9c565b6119d3565b3480156104f757600080fd5b50610255611a68565b34801561050c57600080fd5b5061025561051b366004612d7f565b611a9c565b34801561052c57600080fd5b5061028861053b366004612e8a565b611b12565b34801561054c57600080fd5b5061028860095481565b34801561056257600080fd5b50610288600181565b34801561057757600080fd5b5061028860065481565b34801561058d57600080fd5b5061025561059c366004612d9c565b611cb4565b3480156105ad57600080fd5b506000546001600160a01b031661035d565b3480156105cb57600080fd5b506102886105da366004612e39565b611e02565b3480156105eb57600080fd5b506106266105fa366004612e8a565b600b60209081526000928352604080842090915290825290208054600182015460029092015490919083565b60408051938452602084019290925290820152606001610292565b34801561064d57600080fd5b50610288611e1a565b34801561066257600080fd5b50610255610671366004612d7f565b611ec7565b34801561068257600080fd5b506005546106909060ff1681565b6040519015158152602001610292565b3480156106ac57600080fd5b5060035461035d906001600160a01b031681565b3480156106cc57600080fd5b506106906106db366004612d7f565b60126020526000908152604090205460ff1681565b3480156106fc57600080fd5b5061028861070b366004612e8a565b611f71565b61025561071e366004612e39565b6120c2565b34801561072f57600080fd5b5061025561073e366004612d7f565b612612565b34801561074f57600080fd5b5061025561075e366004612d9c565b6126aa565b6000546001600160a01b031633146107965760405162461bcd60e51b815260040161078d90612eba565b60405180910390fd5b6003546001600160a01b03166107d9576040514790309082156108fc029083906000818181858888f193505050501580156107d5573d6000803e3d6000fd5b5050565b6003546040516370a0823160e01b81523060048201526000916001600160a01b0316906370a0823190602401602060405180830381865afa158015610822573d6000803e3d6000fd5b505050506040513d601f19601f820116820180604052508101906108469190612eef565b60035460405163a9059cbb60e01b8152336004820152602481018390529192506001600160a01b03169063a9059cbb906044016020604051808303816000875af1158015610898573d6000803e3d6000fd5b505050506040513d601f19601f820116820180604052508101906107d59190612f08565b565b6000546001600160a01b031633146108e85760405162461bcd60e51b815260040161078d90612eba565b6002546001600160a01b0382811691161480159061091457506003546001600160a01b03828116911614155b6109785760405162461bcd60e51b815260206004820152602f60248201527f63616e6e6f74207265636f7665722072657761726420746f6b656e206f72207260448201526e32b33632b1ba34b7b7103a37b5b2b760891b606482015260840161078d565b6001600160a01b03811660009081526012602052604090205460ff16156109da5760405162461bcd60e51b81526020600482015260166024820152751d1bdad95b881a5cc81d5cda5b99c81bdb881c1bdbdb60521b604482015260640161078d565b6001600160a01b038116610a1c576040514790309082156108fc029083906000818181858888f19350505050158015610a17573d6000803e3d6000fd5b505050565b6040516370a0823160e01b81523060048201526000906001600160a01b038316906370a0823190602401602060405180830381865afa158015610a63573d6000803e3d6000fd5b505050506040513d601f19601f82011682018060405250810190610a879190612eef565b905080156107d55760405163a9059cbb60e01b8152336004820152602481018290526001600160a01b0383169063a9059cbb906044015b6020604051808303816000875af1158015610add573d6000803e3d6000fd5b505050506040513d601f19601f82011682018060405250810190610a179190612f08565b50565b6000546001600160a01b03163314610b2e5760405162461bcd60e51b815260040161078d90612eba565b610b366119aa565b600681905560405181815233907fe2492e003bbe8afa53088b406f0c1cb5d9e280370fc72a74cf116ffd343c4053906020015b60405180910390a250565b600a8181548110610b8457600080fd5b600091825260209091206007909102018054600182015460028301546003840154600485015460058601546006909601546001600160a01b039095169650929491939092919061ffff808216916201000090041688565b6000546001600160a01b03163314610c055760405162461bcd60e51b815260040161078d90612eba565b6001600160a01b038416600090815260126020526040902054849060ff1615610c705760405162461bcd60e51b815260206004820152601960248201527f6e6f6e4475706c6963617465643a206475706c69636174656400000000000000604482015260640161078d565b6127108461ffff161115610cd45760405162461bcd60e51b815260206004820152602560248201527f6164643a20696e76616c6964206465706f7369742066656520626173697320706044820152646f696e747360d81b606482015260840161078d565b6127108361ffff161115610d395760405162461bcd60e51b815260206004820152602660248201527f6164643a20696e76616c69642077697468647261772066656520626173697320604482015265706f696e747360d01b606482015260840161078d565b8115610d4757610d476119aa565b6000600d544311610d5a57600d54610d5c565b435b600c54909150610d6c9088612846565b600c556001600160a01b038087166000818152601260209081526040808320805460ff191660019081179091558151610100810183529485529184018c8152908401868152606085018481526080860185815260a0870186815261ffff808f1660c08a019081528e821660e08b01908152600a8054808b0182559a8190529a516007909a027fc65a7bb8d6351c1cf70c95a316cc6a92839c986682d98bc35f958f4883f9d2a8810180549b909d166001600160a01b0319909b169a909a17909b5595517fc65a7bb8d6351c1cf70c95a316cc6a92839c986682d98bc35f958f4883f9d2a989015593517fc65a7bb8d6351c1cf70c95a316cc6a92839c986682d98bc35f958f4883f9d2aa88015591517fc65a7bb8d6351c1cf70c95a316cc6a92839c986682d98bc35f958f4883f9d2ab870155517fc65a7bb8d6351c1cf70c95a316cc6a92839c986682d98bc35f958f4883f9d2ac860155517fc65a7bb8d6351c1cf70c95a316cc6a92839c986682d98bc35f958f4883f9d2ad85015590517fc65a7bb8d6351c1cf70c95a316cc6a92839c986682d98bc35f958f4883f9d2ae909301805495518216620100000263ffffffff199096169390911692909217939093179055547fe433f38b1944b0e5a41f7dca06955813533ad97d218de9a1a15b253f2dff791e91610f5d91612f3b565b60408051918252602082018a90526001600160a01b0389169082015261ffff80881660608301528616608082015284151560a082015260c00160405180910390a150505050505050565b6000546001600160a01b03163314610fd15760405162461bcd60e51b815260040161078d90612eba565b8061104f576002546040516370a0823160e01b81523060048201526000916001600160a01b0316906370a0823190602401602060405180830381865afa15801561101f573d6000803e3d6000fd5b505050506040513d601f19601f820116820180604052508101906110439190612eef565b90506107d53382612852565b610b013382612852565b6002600154141561107c5760405162461bcd60e51b815260040161078d90612f52565b6002600155806110ce5760405162461bcd60e51b815260206004820152601f60248201527f416d6f756e742073686f756c642062652067726561746f72207468616e203000604482015260640161078d565b6000600a83815481106110e3576110e3612f89565b60009182526020808320868452600b8252604080852033865290925292208054600790920290920192508311156111515760405162461bcd60e51b81526020600482015260126024820152711dda5d1a191c985dce881b9bdd0819dbdbd960721b604482015260640161078d565b61115a84611603565b6000611194826001015461118e64e8d4a5100061118887600301548760000154612a2190919063ffffffff16565b90612a2d565b90612a39565b9050801561122257806111a5611e1a565b10156111f35760405162461bcd60e51b815260206004820152601a60248201527f496e73756666696369656e742072657761726420746f6b656e73000000000000604482015260640161078d565b6111fd3382612852565b80600f54111561121c57600f546112149082612a39565b600f55611222565b6000600f555b6000611250836002015461118e64e8d4a5100061118888600401548860000154612a2190919063ffffffff16565b9050600081118015611264575060055460ff165b15611334576003546001600160a01b03166112ac57604051339082156108fc029083906000818181858888f193505050501580156112a6573d6000803e3d6000fd5b50611323565b60035460405163a9059cbb60e01b8152336004820152602481018390526001600160a01b039091169063a9059cbb906044016020604051808303816000875af11580156112fd573d6000803e3d6000fd5b505050506040513d601f19601f820116820180604052508101906113219190612f08565b505b6010546113309082612a39565b6010555b84156114055782546113469086612a39565b8355600684015462010000900461ffff16156113c6576006840154600090611381906127109061118890899062010000900461ffff16612a21565b60075486549192506113a0916001600160a01b03908116911683612a45565b6113c0336113ae8884612a39565b87546001600160a01b03169190612a45565b506113dc565b83546113dc906001600160a01b03163387612a45565b60025484546001600160a01b039081169116141561140557600e546114019086612a39565b600e555b600384015483546114209164e8d4a510009161118891612a21565b6001840155600484015483546114409164e8d4a510009161118891612a21565b6002840155604051858152869033907ff279e6a1f5e320cca91135676d9cb6e44ca8a08c0b88342bcdb1144f6511b5689060200160405180910390a350506001805550505050565b6000546001600160a01b031633146114b25760405162461bcd60e51b815260040161078d90612eba565b6127108361ffff1611156114d85760405162461bcd60e51b815260040161078d90612f9f565b6127108261ffff1611156114fe5760405162461bcd60e51b815260040161078d90612f9f565b801561150c5761150c6119aa565b61154f84611549600a888154811061152657611526612f89565b906000526020600020906007020160010154600c54612a3990919063ffffffff16565b90612846565b600c8190555083600a868154811061156957611569612f89565b90600052602060002090600702016001018190555082600a868154811061159257611592612f89565b906000526020600020906007020160060160006101000a81548161ffff021916908361ffff16021790555081600a86815481106115d1576115d1612f89565b906000526020600020906007020160060160026101000a81548161ffff021916908361ffff1602179055505050505050565b6000600a828154811061161857611618612f89565b9060005260206000209060070201905080600201544311611637575050565b80546040516370a0823160e01b81523060048201526000916001600160a01b0316906370a0823190602401602060405180830381865afa15801561167f573d6000803e3d6000fd5b505050506040513d601f19601f820116820180604052508101906116a39190612eef565b90508015806116b457506001820154155b156116c457504360029091015550565b60006116d4836002015443611e02565b90506000611701600c5461118886600101546116fb60065487612a2190919063ffffffff16565b90612a21565b9050611724611719846111888464e8d4a51000612a21565b600386015490612846565b600385015560055460ff16156117e657600061173e6118c8565b905060105481111561175f57601054611758908290612a39565b9050611763565b5060005b600c546117869061177d906111888464e8d4a51000612a21565b60045490612846565b6004819055506117c56117ba856111886117af8960050154600454612a3990919063ffffffff16565b60018a015490612a21565b600487015490612846565b6004808701919091555460058601556010546117e19082612846565b601055505b4384600201819055505050505050565b600260015414156118195760405162461bcd60e51b815260040161078d90612f52565b60026001819055506000600a828154811061183657611836612f89565b60009182526020808320858452600b825260408085203380875293528420805485825560018201959095556007909302018054909450919291611886916001600160a01b03919091169083612a45565b604051818152849033907fbb757047c2b5f3974fe26b7c10f732e7bce710b0952a71082702781e62ae0595906020015b60405180910390a35050600180555050565b6003546000906001600160a01b03166118e057504790565b6003546040516370a0823160e01b81523060048201526000916001600160a01b0316906370a0823190602401602060405180830381865afa158015611929573d6000803e3d6000fd5b505050506040513d601f19601f8201168201806040525081019061194d9190612eef565b6003546002549192506001600160a01b03918216911614156119a557600e54600f5461197891612846565b81101561198757600091505090565b6119a2600e5461118e600f5484612a3990919063ffffffff16565b90505b919050565b600a5460005b818110156107d5576119c181611603565b806119cb81612fe4565b9150506119b0565b6008546001600160a01b03163314611a2d5760405162461bcd60e51b815260206004820152601c60248201527f736574506572666f726d616e63654665653a20464f5242494444454e00000000604482015260640161078d565b60098190556040518181527f8b940a95968ad5b511f89b01075446a4fe9f614f2dc5fbb9e9a6b227d6d4fd709060200160405180910390a150565b6000546001600160a01b03163314611a925760405162461bcd60e51b815260040161078d90612eba565b6108bc6000612aa8565b6000546001600160a01b03163314611ac65760405162461bcd60e51b815260040161078d90612eba565b600780546001600160a01b0319166001600160a01b03831690811790915560405133907fd44190acf9d04bdb5d3a1aafff7e6dee8b40b93dfb8c5d3f0eea4b9f4539c3f790600090a350565b600080600a8481548110611b2857611b28612f89565b60009182526020808320878452600b825260408085206001600160a01b0389811687529352808520600460079590950290920184810154815492516370a0823160e01b8152309681019690965290965091949193919216906370a0823190602401602060405180830381865afa158015611ba6573d6000803e3d6000fd5b505050506040513d601f19601f82011682018060405250810190611bca9190612eef565b9050836002015443118015611bde57508015155b8015611bec575060055460ff165b15611c81576000611bfb6118c8565b9050601054811115611c1c57601054611c15908290612a39565b9050611c20565b5060005b6000611c4361177d600c5461118864e8d4a5100086612a2190919063ffffffff16565b9050611c7c611c7184611188611c668a6005015486612a3990919063ffffffff16565b60018b015490612a21565b600488015490612846565b935050505b611ca9836002015461118e64e8d4a51000611188868860000154612a2190919063ffffffff16565b979650505050505050565b60026001541415611cd75760405162461bcd60e51b815260040161078d90612f52565b600260015580611ce657600080fd5b6002546040516370a0823160e01b81523060048201526000916001600160a01b0316906370a0823190602401602060405180830381865afa158015611d2f573d6000803e3d6000fd5b505050506040513d601f19601f82011682018060405250810190611d539190612eef565b600254909150611d6e906001600160a01b0316333085612af8565b6002546040516370a0823160e01b81523060048201526000916001600160a01b0316906370a0823190602401602060405180830381865afa158015611db7573d6000803e3d6000fd5b505050506040513d601f19601f82011682018060405250810190611ddb9190612eef565b9050611df68261118e83600f5461284690919063ffffffff16565b600f5550506001805550565b6000611e1360016116fb8486612a39565b9392505050565b6003546002546000916001600160a01b0391821691161415611e3d5750600f5490565b6002546040516370a0823160e01b81523060048201526000916001600160a01b0316906370a0823190602401602060405180830381865afa158015611e86573d6000803e3d6000fd5b505050506040513d601f19601f82011682018060405250810190611eaa9190612eef565b9050611ec1600e5482612a3990919063ffffffff16565b91505090565b6008546001600160a01b03163314611f215760405162461bcd60e51b815260206004820152601b60248201527f7365744275794261636b57616c6c65743a20464f5242494444454e0000000000604482015260640161078d565b600880546001600160a01b0319166001600160a01b03831690811790915560405190815233907f5dcc871da1b3d2b6073537b97b4e22ac3dc59199f78de4b24c508f65bb1d99da90602001610b69565b600080600a8481548110611f8757611f87612f89565b60009182526020808320878452600b825260408085206001600160a01b03898116875293528085206007949094029091016003810154815492516370a0823160e01b815230600482015291965093949291909116906370a0823190602401602060405180830381865afa158015612002573d6000803e3d6000fd5b505050506040513d601f19601f820116820180604052508101906120269190612eef565b905083600201544311801561203a57508015155b1561209a57600061204f856002015443611e02565b90506000612076600c5461118888600101546116fb60065487612a2190919063ffffffff16565b905061209561208e846111888464e8d4a51000612a21565b8590612846565b935050505b611ca9836001015461118e64e8d4a51000611188868860000154612a2190919063ffffffff16565b600260015414156120e55760405162461bcd60e51b815260040161078d90612f52565b6002600155600954158015906120f9575080155b156121d5576009543410156121505760405162461bcd60e51b815260206004820152601f60248201527f73686f756c642070617920736d616c6c2067617320746f206861727665737400604482015260640161078d565b6008546009546040516001600160a01b039092169181156108fc0291906000818181858888f1935050505015801561218c573d6000803e3d6000fd5b506009543411156121d55760095433906108fc906121ab903490612a39565b6040518115909202916000818181858888f193505050501580156121d3573d6000803e3d6000fd5b505b6000600a83815481106121ea576121ea612f89565b60009182526020808320868452600b8252604080852033865290925292206007909102909101915061221b84611603565b8054156123f3576000612250826001015461118e64e8d4a5100061118887600301548760000154612a2190919063ffffffff16565b905080156122de5780612261611e1a565b10156122af5760405162461bcd60e51b815260206004820152601a60248201527f496e73756666696369656e742072657761726420746f6b656e73000000000000604482015260640161078d565b6122b93382612852565b80600f5411156122d857600f546122d09082612a39565b600f556122de565b6000600f555b600061230c836002015461118e64e8d4a5100061118888600401548860000154612a2190919063ffffffff16565b9050600081118015612320575060055460ff165b156123f0576003546001600160a01b031661236857604051339082156108fc029083906000818181858888f19350505050158015612362573d6000803e3d6000fd5b506123df565b60035460405163a9059cbb60e01b8152336004820152602481018390526001600160a01b039091169063a9059cbb906044016020604051808303816000875af11580156123b9573d6000803e3d6000fd5b505050506040513d601f19601f820116820180604052508101906123dd9190612f08565b505b6010546123ec9082612a39565b6010555b50505b821561259e5781546040516370a0823160e01b81523060048201526000916001600160a01b0316906370a0823190602401602060405180830381865afa158015612441573d6000803e3d6000fd5b505050506040513d601f19601f820116820180604052508101906124659190612eef565b835490915061247f906001600160a01b0316333087612af8565b82546040516370a0823160e01b81523060048201526000916001600160a01b0316906370a0823190602401602060405180830381865afa1580156124c7573d6000803e3d6000fd5b505050506040513d601f19601f820116820180604052508101906124eb9190612eef565b905060006124f98284612a39565b600686015490915061ffff1615612562576006850154600090612529906127109061118890859061ffff16612a21565b6007548754919250612548916001600160a01b03908116911683612a45565b845461255a90829061118e9085612846565b855550612571565b835461256e9082612846565b84555b60025485546001600160a01b039081169116141561259a57600e546125969082612846565b600e555b5050505b600382015481546125b99164e8d4a510009161118891612a21565b6001820155600482015481546125d99164e8d4a510009161118891612a21565b6002820155604051838152849033907f90890809c654f11d6e72a28fa60149770a0d11ec6c92319d6ceb2bb0a4ea1a15906020016118b6565b6000546001600160a01b0316331461263c5760405162461bcd60e51b815260040161078d90612eba565b6001600160a01b0381166126a15760405162461bcd60e51b815260206004820152602660248201527f4f776e61626c653a206e6577206f776e657220697320746865207a65726f206160448201526564647265737360d01b606482015260840161078d565b610b0181612aa8565b6000546001600160a01b031633146126d45760405162461bcd60e51b815260040161078d90612eba565b43600d541161271b5760405162461bcd60e51b81526020600482015260136024820152726661726d2069732072756e6e696e67206e6f7760681b604482015260640161078d565b4381116127765760405162461bcd60e51b8152602060048201526024808201527f73686f756c642062652067726561746572207468616e2063757272656e7420626044820152636c6f636b60e01b606482015260840161078d565b600d81905560005b600a548110156127c457600d54600a828154811061279e5761279e612f89565b6000918252602090912060026007909202010155806127bc81612fe4565b91505061277e565b506003546001600160a01b0316612804576040514790339082156108fc029083906000818181858888f19350505050158015610a17573d6000803e3d6000fd5b600061280e6118c8565b60035460405163a9059cbb60e01b8152336004820152602481018390529192506001600160a01b03169063a9059cbb90604401610abe565b6000611e138284612fff565b6002546040516370a0823160e01b81523060048201526000916001600160a01b0316906370a0823190602401602060405180830381865afa15801561289b573d6000803e3d6000fd5b505050506040513d601f19601f820116820180604052508101906128bf9190612eef565b90506000818311156129495760025460405163a9059cbb60e01b81526001600160a01b038681166004830152602482018590529091169063a9059cbb906044016020604051808303816000875af115801561291e573d6000803e3d6000fd5b505050506040513d601f19601f820116820180604052508101906129429190612f08565b90506129c3565b60025460405163a9059cbb60e01b81526001600160a01b038681166004830152602482018690529091169063a9059cbb906044016020604051808303816000875af115801561299c573d6000803e3d6000fd5b505050506040513d601f19601f820116820180604052508101906129c09190612f08565b90505b80612a1b5760405162461bcd60e51b815260206004820152602260248201527f73616665546f6b656e5472616e736665723a207472616e73666572206661696c604482015261195960f21b606482015260840161078d565b50505050565b6000611e138284613017565b6000611e138284613036565b6000611e138284612f3b565b6040516001600160a01b038316602482015260448101829052610a1790849063a9059cbb60e01b906064015b60408051601f198184030181529190526020810180516001600160e01b03166001600160e01b031990931692909217909152612b30565b600080546001600160a01b038381166001600160a01b0319831681178455604051919092169283917f8be0079c531659141344cd1fd0a4f28419497f9722a3daafe3b4186f6b6457e09190a35050565b6040516001600160a01b0380851660248301528316604482015260648101829052612a1b9085906323b872dd60e01b90608401612a71565b6000612b85826040518060400160405280602081526020017f5361666545524332303a206c6f772d6c6576656c2063616c6c206661696c6564815250856001600160a01b0316612c029092919063ffffffff16565b805190915015610a175780806020019051810190612ba39190612f08565b610a175760405162461bcd60e51b815260206004820152602a60248201527f5361666545524332303a204552433230206f7065726174696f6e20646964206e6044820152691bdd081cdd58d8d9595960b21b606482015260840161078d565b6060612c118484600085612c19565b949350505050565b606082471015612c7a5760405162461bcd60e51b815260206004820152602660248201527f416464726573733a20696e73756666696369656e742062616c616e636520666f6044820152651c8818d85b1b60d21b606482015260840161078d565b843b612cc85760405162461bcd60e51b815260206004820152601d60248201527f416464726573733a2063616c6c20746f206e6f6e2d636f6e7472616374000000604482015260640161078d565b600080866001600160a01b03168587604051612ce49190613084565b60006040518083038185875af1925050503d8060008114612d21576040519150601f19603f3d011682016040523d82523d6000602084013e612d26565b606091505b5091509150611ca982828660608315612d40575081611e13565b825115612d505782518084602001fd5b8160405162461bcd60e51b815260040161078d91906130a0565b6001600160a01b0381168114610b0157600080fd5b600060208284031215612d9157600080fd5b8135611e1381612d6a565b600060208284031215612dae57600080fd5b5035919050565b803561ffff811681146119a557600080fd5b8015158114610b0157600080fd5b600080600080600060a08688031215612ded57600080fd5b853594506020860135612dff81612d6a565b9350612e0d60408701612db5565b9250612e1b60608701612db5565b91506080860135612e2b81612dc7565b809150509295509295909350565b60008060408385031215612e4c57600080fd5b50508035926020909101359150565b600080600080600060a08688031215612e7357600080fd5b8535945060208601359350612e0d60408701612db5565b60008060408385031215612e9d57600080fd5b823591506020830135612eaf81612d6a565b809150509250929050565b6020808252818101527f4f776e61626c653a2063616c6c6572206973206e6f7420746865206f776e6572604082015260600190565b600060208284031215612f0157600080fd5b5051919050565b600060208284031215612f1a57600080fd5b8151611e1381612dc7565b634e487b7160e01b600052601160045260246000fd5b600082821015612f4d57612f4d612f25565b500390565b6020808252601f908201527f5265656e7472616e637947756172643a207265656e7472616e742063616c6c00604082015260600190565b634e487b7160e01b600052603260045260246000fd5b60208082526025908201527f7365743a20696e76616c6964206465706f7369742066656520626173697320706040820152646f696e747360d81b606082015260800190565b6000600019821415612ff857612ff8612f25565b5060010190565b6000821982111561301257613012612f25565b500190565b600081600019048311821515161561303157613031612f25565b500290565b60008261305357634e487b7160e01b600052601260045260246000fd5b500490565b60005b8381101561307357818101518382015260200161305b565b83811115612a1b5750506000910152565b60008251613096818460208701613058565b9190910192915050565b60208152600082518060208401526130bf816040850160208701613058565b601f01601f1916919091016040019291505056fea2646970667358221220d1c2d2cdca871477e2a63e4f8b71a9a816c23cc6eadc47065d2fae3707062a2564736f6c634300080b0033",
  "linkReferences": {},
  "deployedLinkReferences": {}
}