{
  "_format": "hh-sol-artifact-1",
  "contractName": "StakeStationLock",
  "sourceName": "contracts/SSLockup.sol",
  "abi": [
    {
      "inputs": [],
      "stateMutability": "nonpayable",
      "type": "constructor"
    },
    {
      "anonymous": false,
      "inputs": [
        {
          "indexed": false,
          "internalType": "address",
          "name": "tokenRecovered",
          "type": "address"
        },
        {
          "indexed": false,
          "internalType": "uint256",
          "name": "amount",
          "type": "uint256"
        }
      ],
      "name": "AdminTokenRecovered",
      "type": "event"
    },
    {
      "anonymous": false,
      "inputs": [
        {
          "indexed": true,
          "internalType": "address",
          "name": "user",
          "type": "address"
        },
        {
          "indexed": false,
          "internalType": "uint256",
          "name": "stakeType",
          "type": "uint256"
        },
        {
          "indexed": false,
          "internalType": "uint256",
          "name": "amount",
          "type": "uint256"
        }
      ],
      "name": "Deposit",
      "type": "event"
    },
    {
      "anonymous": false,
      "inputs": [
        {
          "indexed": false,
          "internalType": "uint256",
          "name": "_duration",
          "type": "uint256"
        }
      ],
      "name": "DurationUpdated",
      "type": "event"
    },
    {
      "anonymous": false,
      "inputs": [
        {
          "indexed": true,
          "internalType": "address",
          "name": "user",
          "type": "address"
        },
        {
          "indexed": false,
          "internalType": "uint256",
          "name": "amount",
          "type": "uint256"
        }
      ],
      "name": "EmergencyWithdraw",
      "type": "event"
    },
    {
      "anonymous": false,
      "inputs": [
        {
          "indexed": false,
          "internalType": "uint8",
          "name": "_type",
          "type": "uint8"
        },
        {
          "indexed": false,
          "internalType": "uint256",
          "name": "_duration",
          "type": "uint256"
        },
        {
          "indexed": false,
          "internalType": "uint256",
          "name": "_fee0",
          "type": "uint256"
        },
        {
          "indexed": false,
          "internalType": "uint256",
          "name": "_fee1",
          "type": "uint256"
        },
        {
          "indexed": false,
          "internalType": "uint256",
          "name": "_rate",
          "type": "uint256"
        }
      ],
      "name": "LockupUpdated",
      "type": "event"
    },
    {
      "anonymous": false,
      "inputs": [
        {
          "indexed": false,
          "internalType": "uint256",
          "name": "poolLimitPerUser",
          "type": "uint256"
        }
      ],
      "name": "NewPoolLimit",
      "type": "event"
    },
    {
      "anonymous": false,
      "inputs": [
        {
          "indexed": false,
          "internalType": "uint256",
          "name": "startBlock",
          "type": "uint256"
        },
        {
          "indexed": false,
          "internalType": "uint256",
          "name": "endBlock",
          "type": "uint256"
        }
      ],
      "name": "NewStartAndEndBlocks",
      "type": "event"
    },
    {
      "anonymous": false,
      "inputs": [
        {
          "indexed": true,
          "internalType": "address",
          "name": "previousOwner",
          "type": "address"
        },
        {
          "indexed": true,
          "internalType": "address",
          "name": "newOwner",
          "type": "address"
        }
      ],
      "name": "OwnershipTransferred",
      "type": "event"
    },
    {
      "anonymous": false,
      "inputs": [
        {
          "indexed": false,
          "internalType": "uint256",
          "name": "blockNumber",
          "type": "uint256"
        }
      ],
      "name": "RewardsStop",
      "type": "event"
    },
    {
      "anonymous": false,
      "inputs": [
        {
          "indexed": false,
          "internalType": "address",
          "name": "_addr",
          "type": "address"
        },
        {
          "indexed": false,
          "internalType": "uint256",
          "name": "_fee",
          "type": "uint256"
        }
      ],
      "name": "ServiceInfoUpadted",
      "type": "event"
    },
    {
      "anonymous": false,
      "inputs": [
        {
          "indexed": false,
          "internalType": "uint256",
          "name": "_slippageFactor",
          "type": "uint256"
        },
        {
          "indexed": false,
          "internalType": "address",
          "name": "_uniRouter",
          "type": "address"
        },
        {
          "indexed": false,
          "internalType": "address[]",
          "name": "_path0",
          "type": "address[]"
        },
        {
          "indexed": false,
          "internalType": "address[]",
          "name": "_path1",
          "type": "address[]"
        },
        {
          "indexed": false,
          "internalType": "address",
          "name": "_walletA",
          "type": "address"
        }
      ],
      "name": "SetSettings",
      "type": "event"
    },
    {
      "anonymous": false,
      "inputs": [
        {
          "indexed": true,
          "internalType": "address",
          "name": "user",
          "type": "address"
        },
        {
          "indexed": false,
          "internalType": "uint256",
          "name": "stakeType",
          "type": "uint256"
        },
        {
          "indexed": false,
          "internalType": "uint256",
          "name": "amount",
          "type": "uint256"
        }
      ],
      "name": "Withdraw",
      "type": "event"
    },
    {
      "inputs": [],
      "name": "POOL_FACTORY",
      "outputs": [
        {
          "internalType": "address",
          "name": "",
          "type": "address"
        }
      ],
      "stateMutability": "view",
      "type": "function"
    },
    {
      "inputs": [],
      "name": "PRECISION_FACTOR",
      "outputs": [
        {
          "internalType": "uint256",
          "name": "",
          "type": "uint256"
        }
      ],
      "stateMutability": "view",
      "type": "function"
    },
    {
      "inputs": [],
      "name": "PRECISION_FACTOR_REFLECTION",
      "outputs": [
        {
          "internalType": "uint256",
          "name": "",
          "type": "uint256"
        }
      ],
      "stateMutability": "view",
      "type": "function"
    },
    {
      "inputs": [],
      "name": "accDividendPerShare",
      "outputs": [
        {
          "internalType": "uint256",
          "name": "",
          "type": "uint256"
        }
      ],
      "stateMutability": "view",
      "type": "function"
    },
    {
      "inputs": [
        {
          "internalType": "uint256",
          "name": "_duration",
          "type": "uint256"
        },
        {
          "internalType": "uint256",
          "name": "_depositFee",
          "type": "uint256"
        },
        {
          "internalType": "uint256",
          "name": "_withdrawFee",
          "type": "uint256"
        },
        {
          "internalType": "uint256",
          "name": "_rate",
          "type": "uint256"
        }
      ],
      "name": "addLockup",
      "outputs": [],
      "stateMutability": "nonpayable",
      "type": "function"
    },
    {
      "inputs": [],
      "name": "availableRewardTokens",
      "outputs": [
        {
          "internalType": "uint256",
          "name": "",
          "type": "uint256"
        }
      ],
      "stateMutability": "view",
      "type": "function"
    },
    {
      "inputs": [],
      "name": "availabledividendTokens",
      "outputs": [
        {
          "internalType": "uint256",
          "name": "",
          "type": "uint256"
        }
      ],
      "stateMutability": "view",
      "type": "function"
    },
    {
      "inputs": [],
      "name": "bonusEndBlock",
      "outputs": [
        {
          "internalType": "uint256",
          "name": "",
          "type": "uint256"
        }
      ],
      "stateMutability": "view",
      "type": "function"
    },
    {
      "inputs": [],
      "name": "buyBackWallet",
      "outputs": [
        {
          "internalType": "address",
          "name": "",
          "type": "address"
        }
      ],
      "stateMutability": "view",
      "type": "function"
    },
    {
      "inputs": [
        {
          "internalType": "uint8",
          "name": "_stakeType",
          "type": "uint8"
        }
      ],
      "name": "claimDividend",
      "outputs": [],
      "stateMutability": "payable",
      "type": "function"
    },
    {
      "inputs": [
        {
          "internalType": "uint8",
          "name": "_stakeType",
          "type": "uint8"
        }
      ],
      "name": "claimReward",
      "outputs": [],
      "stateMutability": "payable",
      "type": "function"
    },
    {
      "inputs": [
        {
          "internalType": "uint8",
          "name": "_stakeType",
          "type": "uint8"
        }
      ],
      "name": "compoundDividend",
      "outputs": [],
      "stateMutability": "payable",
      "type": "function"
    },
    {
      "inputs": [
        {
          "internalType": "uint8",
          "name": "_stakeType",
          "type": "uint8"
        }
      ],
      "name": "compoundReward",
      "outputs": [],
      "stateMutability": "payable",
      "type": "function"
    },
    {
      "inputs": [
        {
          "internalType": "uint256",
          "name": "_amount",
          "type": "uint256"
        },
        {
          "internalType": "uint8",
          "name": "_stakeType",
          "type": "uint8"
        }
      ],
      "name": "deposit",
      "outputs": [],
      "stateMutability": "nonpayable",
      "type": "function"
    },
    {
      "inputs": [
        {
          "internalType": "uint256",
          "name": "_amount",
          "type": "uint256"
        }
      ],
      "name": "depositRewards",
      "outputs": [],
      "stateMutability": "nonpayable",
      "type": "function"
    },
    {
      "inputs": [],
      "name": "dividendToken",
      "outputs": [
        {
          "internalType": "contract IERC20",
          "name": "",
          "type": "address"
        }
      ],
      "stateMutability": "view",
      "type": "function"
    },
    {
      "inputs": [],
      "name": "duration",
      "outputs": [
        {
          "internalType": "uint256",
          "name": "",
          "type": "uint256"
        }
      ],
      "stateMutability": "view",
      "type": "function"
    },
    {
      "inputs": [
        {
          "internalType": "uint256",
          "name": "",
          "type": "uint256"
        }
      ],
      "name": "earnedToStakedPath",
      "outputs": [
        {
          "internalType": "address",
          "name": "",
          "type": "address"
        }
      ],
      "stateMutability": "view",
      "type": "function"
    },
    {
      "inputs": [],
      "name": "earnedToken",
      "outputs": [
        {
          "internalType": "contract IERC20",
          "name": "",
          "type": "address"
        }
      ],
      "stateMutability": "view",
      "type": "function"
    },
    {
      "inputs": [
        {
          "internalType": "uint256",
          "name": "_amount",
          "type": "uint256"
        }
      ],
      "name": "emergencyRewardWithdraw",
      "outputs": [],
      "stateMutability": "nonpayable",
      "type": "function"
    },
    {
      "inputs": [
        {
          "internalType": "uint8",
          "name": "_stakeType",
          "type": "uint8"
        }
      ],
      "name": "emergencyWithdraw",
      "outputs": [],
      "stateMutability": "nonpayable",
      "type": "function"
    },
    {
      "inputs": [],
      "name": "harvest",
      "outputs": [],
      "stateMutability": "nonpayable",
      "type": "function"
    },
    {
      "inputs": [],
      "name": "hasUserLimit",
      "outputs": [
        {
          "internalType": "bool",
          "name": "",
          "type": "bool"
        }
      ],
      "stateMutability": "view",
      "type": "function"
    },
    {
      "inputs": [
        {
          "internalType": "address",
          "name": "_stakingToken",
          "type": "address"
        },
        {
          "internalType": "address",
          "name": "_earnedToken",
          "type": "address"
        },
        {
          "internalType": "address",
          "name": "_dividendToken",
          "type": "address"
        },
        {
          "internalType": "address",
          "name": "_uniRouter",
          "type": "address"
        },
        {
          "internalType": "address[]",
          "name": "_earnedToStakedPath",
          "type": "address[]"
        },
        {
          "internalType": "address[]",
          "name": "_reflectionToStakedPath",
          "type": "address[]"
        }
      ],
      "name": "initialize",
      "outputs": [],
      "stateMutability": "nonpayable",
      "type": "function"
    },
    {
      "inputs": [],
      "name": "isInitialized",
      "outputs": [
        {
          "internalType": "bool",
          "name": "",
          "type": "bool"
        }
      ],
      "stateMutability": "view",
      "type": "function"
    },
    {
      "inputs": [
        {
          "internalType": "uint256",
          "name": "",
          "type": "uint256"
        }
      ],
      "name": "lockups",
      "outputs": [
        {
          "internalType": "uint8",
          "name": "stakeType",
          "type": "uint8"
        },
        {
          "internalType": "uint256",
          "name": "duration",
          "type": "uint256"
        },
        {
          "internalType": "uint256",
          "name": "depositFee",
          "type": "uint256"
        },
        {
          "internalType": "uint256",
          "name": "withdrawFee",
          "type": "uint256"
        },
        {
          "internalType": "uint256",
          "name": "rate",
          "type": "uint256"
        },
        {
          "internalType": "uint256",
          "name": "accTokenPerShare",
          "type": "uint256"
        },
        {
          "internalType": "uint256",
          "name": "lastRewardBlock",
          "type": "uint256"
        },
        {
          "internalType": "uint256",
          "name": "totalStaked",
          "type": "uint256"
        }
      ],
      "stateMutability": "view",
      "type": "function"
    },
    {
      "inputs": [],
      "name": "owner",
      "outputs": [
        {
          "internalType": "address",
          "name": "",
          "type": "address"
        }
      ],
      "stateMutability": "view",
      "type": "function"
    },
    {
      "inputs": [
        {
          "internalType": "address",
          "name": "_account",
          "type": "address"
        },
        {
          "internalType": "uint8",
          "name": "_stakeType",
          "type": "uint8"
        }
      ],
      "name": "pendingDividends",
      "outputs": [
        {
          "internalType": "uint256",
          "name": "",
          "type": "uint256"
        }
      ],
      "stateMutability": "view",
      "type": "function"
    },
    {
      "inputs": [
        {
          "internalType": "address",
          "name": "_account",
          "type": "address"
        },
        {
          "internalType": "uint8",
          "name": "_stakeType",
          "type": "uint8"
        }
      ],
      "name": "pendingReward",
      "outputs": [
        {
          "internalType": "uint256",
          "name": "",
          "type": "uint256"
        }
      ],
      "stateMutability": "view",
      "type": "function"
    },
    {
      "inputs": [],
      "name": "performanceFee",
      "outputs": [
        {
          "internalType": "uint256",
          "name": "",
          "type": "uint256"
        }
      ],
      "stateMutability": "view",
      "type": "function"
    },
    {
      "inputs": [],
      "name": "poolLimitPerUser",
      "outputs": [
        {
          "internalType": "uint256",
          "name": "",
          "type": "uint256"
        }
      ],
      "stateMutability": "view",
      "type": "function"
    },
    {
      "inputs": [
        {
          "internalType": "address",
          "name": "_tokenAddress",
          "type": "address"
        },
        {
          "internalType": "uint256",
          "name": "_tokenAmount",
          "type": "uint256"
        }
      ],
      "name": "recoverWrongTokens",
      "outputs": [],
      "stateMutability": "nonpayable",
      "type": "function"
    },
    {
      "inputs": [
        {
          "internalType": "uint256",
          "name": "",
          "type": "uint256"
        }
      ],
      "name": "reflectionToStakedPath",
      "outputs": [
        {
          "internalType": "address",
          "name": "",
          "type": "address"
        }
      ],
      "stateMutability": "view",
      "type": "function"
    },
    {
      "inputs": [],
      "name": "renounceOwnership",
      "outputs": [],
      "stateMutability": "nonpayable",
      "type": "function"
    },
    {
      "inputs": [],
      "name": "resetAllowances",
      "outputs": [],
      "stateMutability": "nonpayable",
      "type": "function"
    },
    {
      "inputs": [
        {
          "internalType": "uint8",
          "name": "_stakeType",
          "type": "uint8"
        }
      ],
      "name": "rewardPerBlock",
      "outputs": [
        {
          "internalType": "uint256",
          "name": "",
          "type": "uint256"
        }
      ],
      "stateMutability": "view",
      "type": "function"
    },
    {
      "inputs": [
        {
          "internalType": "uint256",
          "name": "_duration",
          "type": "uint256"
        }
      ],
      "name": "setDuration",
      "outputs": [],
      "stateMutability": "nonpayable",
      "type": "function"
    },
    {
      "inputs": [
        {
          "internalType": "address",
          "name": "_addr",
          "type": "address"
        },
        {
          "internalType": "uint256",
          "name": "_fee",
          "type": "uint256"
        }
      ],
      "name": "setServiceInfo",
      "outputs": [],
      "stateMutability": "nonpayable",
      "type": "function"
    },
    {
      "inputs": [
        {
          "internalType": "uint256",
          "name": "_slippageFactor",
          "type": "uint256"
        },
        {
          "internalType": "address",
          "name": "_uniRouter",
          "type": "address"
        },
        {
          "internalType": "address[]",
          "name": "_earnedToStakedPath",
          "type": "address[]"
        },
        {
          "internalType": "address[]",
          "name": "_reflectionToStakedPath",
          "type": "address[]"
        },
        {
          "internalType": "address",
          "name": "_feeAddr",
          "type": "address"
        }
      ],
      "name": "setSettings",
      "outputs": [],
      "stateMutability": "nonpayable",
      "type": "function"
    },
    {
      "inputs": [],
      "name": "slippageFactor",
      "outputs": [
        {
          "internalType": "uint256",
          "name": "",
          "type": "uint256"
        }
      ],
      "stateMutability": "view",
      "type": "function"
    },
    {
      "inputs": [],
      "name": "slippageFactorUL",
      "outputs": [
        {
          "internalType": "uint256",
          "name": "",
          "type": "uint256"
        }
      ],
      "stateMutability": "view",
      "type": "function"
    },
    {
      "inputs": [],
      "name": "stakingToken",
      "outputs": [
        {
          "internalType": "contract IERC20",
          "name": "",
          "type": "address"
        }
      ],
      "stateMutability": "view",
      "type": "function"
    },
    {
      "inputs": [],
      "name": "startBlock",
      "outputs": [
        {
          "internalType": "uint256",
          "name": "",
          "type": "uint256"
        }
      ],
      "stateMutability": "view",
      "type": "function"
    },
    {
      "inputs": [],
      "name": "startReward",
      "outputs": [],
      "stateMutability": "nonpayable",
      "type": "function"
    },
    {
      "inputs": [],
      "name": "stopReward",
      "outputs": [],
      "stateMutability": "nonpayable",
      "type": "function"
    },
    {
      "inputs": [],
      "name": "totalStaked",
      "outputs": [
        {
          "internalType": "uint256",
          "name": "",
          "type": "uint256"
        }
      ],
      "stateMutability": "view",
      "type": "function"
    },
    {
      "inputs": [
        {
          "internalType": "address",
          "name": "newOwner",
          "type": "address"
        }
      ],
      "name": "transferOwnership",
      "outputs": [],
      "stateMutability": "nonpayable",
      "type": "function"
    },
    {
      "inputs": [],
      "name": "uniRouterAddress",
      "outputs": [
        {
          "internalType": "address",
          "name": "",
          "type": "address"
        }
      ],
      "stateMutability": "view",
      "type": "function"
    },
    {
      "inputs": [
        {
          "internalType": "uint8",
          "name": "_stakeType",
          "type": "uint8"
        },
        {
          "internalType": "uint256",
          "name": "_duration",
          "type": "uint256"
        },
        {
          "internalType": "uint256",
          "name": "_depositFee",
          "type": "uint256"
        },
        {
          "internalType": "uint256",
          "name": "_withdrawFee",
          "type": "uint256"
        },
        {
          "internalType": "uint256",
          "name": "_rate",
          "type": "uint256"
        }
      ],
      "name": "updateLockup",
      "outputs": [],
      "stateMutability": "nonpayable",
      "type": "function"
    },
    {
      "inputs": [
        {
          "internalType": "bool",
          "name": "_hasUserLimit",
          "type": "bool"
        },
        {
          "internalType": "uint256",
          "name": "_poolLimitPerUser",
          "type": "uint256"
        }
      ],
      "name": "updatePoolLimitPerUser",
      "outputs": [],
      "stateMutability": "nonpayable",
      "type": "function"
    },
    {
      "inputs": [
        {
          "internalType": "uint8",
          "name": "_stakeType",
          "type": "uint8"
        },
        {
          "internalType": "address",
          "name": "_account",
          "type": "address"
        }
      ],
      "name": "userInfo",
      "outputs": [
        {
          "internalType": "uint256",
          "name": "amount",
          "type": "uint256"
        },
        {
          "internalType": "uint256",
          "name": "available",
          "type": "uint256"
        },
        {
          "internalType": "uint256",
          "name": "locked",
          "type": "uint256"
        }
      ],
      "stateMutability": "view",
      "type": "function"
    },
    {
      "inputs": [
        {
          "internalType": "address",
          "name": "",
          "type": "address"
        }
      ],
      "name": "userStaked",
      "outputs": [
        {
          "internalType": "uint256",
          "name": "amount",
          "type": "uint256"
        },
        {
          "internalType": "uint256",
          "name": "locked",
          "type": "uint256"
        },
        {
          "internalType": "uint256",
          "name": "available",
          "type": "uint256"
        }
      ],
      "stateMutability": "view",
      "type": "function"
    },
    {
      "inputs": [
        {
          "internalType": "address",
          "name": "",
          "type": "address"
        },
        {
          "internalType": "uint256",
          "name": "",
          "type": "uint256"
        }
      ],
      "name": "userStakes",
      "outputs": [
        {
          "internalType": "uint8",
          "name": "stakeType",
          "type": "uint8"
        },
        {
          "internalType": "uint256",
          "name": "amount",
          "type": "uint256"
        },
        {
          "internalType": "uint256",
          "name": "duration",
          "type": "uint256"
        },
        {
          "internalType": "uint256",
          "name": "end",
          "type": "uint256"
        },
        {
          "internalType": "uint256",
          "name": "rewardDebt",
          "type": "uint256"
        },
        {
          "internalType": "uint256",
          "name": "reflectionDebt",
          "type": "uint256"
        }
      ],
      "stateMutability": "view",
      "type": "function"
    },
    {
      "inputs": [],
      "name": "walletA",
      "outputs": [
        {
          "internalType": "address",
          "name": "",
          "type": "address"
        }
      ],
      "stateMutability": "view",
      "type": "function"
    },
    {
      "inputs": [
        {
          "internalType": "uint256",
          "name": "_amount",
          "type": "uint256"
        },
        {
          "internalType": "uint8",
          "name": "_stakeType",
          "type": "uint8"
        }
      ],
      "name": "withdraw",
      "outputs": [],
      "stateMutability": "nonpayable",
      "type": "function"
    },
    {
      "stateMutability": "payable",
      "type": "receive"
    }
  ],
  "bytecode": "0x608060405261016d6003556103b6600855600d80546001600160a01b0319167311f92bbcb91208566edf221bc440c2700c5b1ef71790556601c6bf52634000600e553480156200004e57600080fd5b506200005a3362000076565b60018055600280546001600160a01b03191633179055620000c6565b600080546001600160a01b038381166001600160a01b0319831681178455604051919092169283917f8be0079c531659141344cd1fd0a4f28419497f9722a3daafe3b4186f6b6457e09190a35050565b615a4180620000d66000396000f3fe6080604052600436106103545760003560e01c806378d57eea116101c6578063acc3a939116100f7578063d8e3160811610095578063f6be71d11161006f578063f6be71d1146109b8578063f8920ee7146109d8578063fbe32b35146109f8578063ffbd3b1f14610a1857600080fd5b8063d8e3160814610958578063e7a2fed714610978578063f2fde38b1461099857600080fd5b8063b77e7da0116100d1578063b77e7da0146108ed578063bd01ac4e1461090d578063c1e22a6514610922578063ccd34cd51461094257600080fd5b8063acc3a9391461084a578063b5d5b5fa14610886578063b74cd242146108d757600080fd5b80638da5cb5b1161016457806392b46e5b1161013e57806392b46e5b146107e557806392e8990e146107fb5780639f94e27214610815578063a0b409051461082a57600080fd5b80638da5cb5b146107485780638e6f4fb714610766578063903d4296146107c557600080fd5b806381b61948116101a057806381b61948146106dc57806387788782146106fc57806388bbb0c1146107125780638bdf67f21461072857600080fd5b806378d57eea1461069e57806380dc0672146106b1578063817b1cd2146106c657600080fd5b80634561aaaf116102a0578063693a090b1161023e578063715018a611610218578063715018a61461061957806372f702f31461062e578063746c8ae11461064e57806376fa17d21461066357600080fd5b8063693a090b146105b95780636becd657146105d95780636e707b73146105f957600080fd5b8063515bbf2c1161027a578063515bbf2c14610550578063654cfdff1461057057806366fe9f8a14610590578063689f1623146105a657600080fd5b80634561aaaf146105055780634641257d1461052557806348cd4cb11461053a57600080fd5b80631cd348c01161030d5780633279beab116102e75780633279beab1461047f5780633505b09f1461049f578063392e53cd146104b45780633f138d4b146104e557600080fd5b80631cd348c01461042c578063301b22161461044c578063304f807c1461046c57600080fd5b80630fb5a6b41461036057806313c68f9014610389578063155622a41461039e5780631582358e146103be578063167d2dbe146103f65780631aed65531461041657600080fd5b3661035b57005b600080fd5b34801561036c57600080fd5b5061037660035481565b6040519081526020015b60405180910390f35b61039c61039736600461516f565b610a2e565b005b3480156103aa57600080fd5b5061039c6103b936600461516f565b610bed565b3480156103ca57600080fd5b506013546103de906001600160a01b031681565b6040516001600160a01b039091168152602001610380565b34801561040257600080fd5b506103de61041136600461518c565b610d90565b34801561042257600080fd5b5061037660075481565b34801561043857600080fd5b50600d546103de906001600160a01b031681565b34801561045857600080fd5b5061039c6104673660046151a5565b610dba565b61039c61047a36600461516f565b610f62565b34801561048b57600080fd5b5061039c61049a36600461518c565b611414565b3480156104ab57600080fd5b5061039c611505565b3480156104c057600080fd5b506002546104d590600160a01b900460ff1681565b6040519015158152602001610380565b3480156104f157600080fd5b5061039c6105003660046151fe565b611539565b34801561051157600080fd5b5061039c61052036600461522a565b611738565b34801561053157600080fd5b5061039c6118b9565b34801561054657600080fd5b5061037660065481565b34801561055c57600080fd5b5061039c61056b366004615330565b611a3e565b34801561057c57600080fd5b5061039c61058b3660046153dd565b611f07565b34801561059c57600080fd5b5061037660055481565b61039c6105b436600461516f565b612689565b3480156105c557600080fd5b506009546103de906001600160a01b031681565b3480156105e557600080fd5b506103766105f436600461540d565b612b27565b34801561060557600080fd5b506012546103de906001600160a01b031681565b34801561062557600080fd5b5061039c612ccd565b34801561063a57600080fd5b506011546103de906001600160a01b031681565b34801561065a57600080fd5b5061039c612d01565b34801561066f57600080fd5b5061068361067e36600461543b565b612e35565b60408051938452602084019290925290820152606001610380565b61039c6106ac36600461516f565b612f0b565b3480156106bd57600080fd5b5061039c613298565b3480156106d257600080fd5b5061037660155481565b3480156106e857600080fd5b5061039c6106f73660046151fe565b6132c8565b34801561070857600080fd5b50610376600e5481565b34801561071e57600080fd5b5061037660105481565b34801561073457600080fd5b5061039c61074336600461518c565b6133de565b34801561075457600080fd5b506000546001600160a01b03166103de565b34801561077257600080fd5b5061078661078136600461518c565b61352c565b6040805160ff90991689526020890197909752958701949094526060860192909252608085015260a084015260c083015260e082015261010001610380565b3480156107d157600080fd5b5061039c6107e03660046153dd565b613586565b3480156107f157600080fd5b5061037660145481565b34801561080757600080fd5b506004546104d59060ff1681565b34801561082157600080fd5b50610376613c2c565b34801561083657600080fd5b5061039c610845366004615477565b613d03565b34801561085657600080fd5b50610683610865366004615495565b601b6020526000908152604090208054600182015460029092015490919083565b34801561089257600080fd5b506108a66108a13660046151fe565b613e15565b6040805160ff90971687526020870195909552938501929092526060840152608083015260a082015260c001610380565b3480156108e357600080fd5b506103766103e381565b3480156108f957600080fd5b50600c546103de906001600160a01b031681565b34801561091957600080fd5b50610376613e6d565b34801561092e57600080fd5b506103de61093d36600461518c565b613f6a565b34801561094e57600080fd5b50610376600f5481565b34801561096457600080fd5b506002546103de906001600160a01b031681565b34801561098457600080fd5b5061039c6109933660046154b2565b613f7a565b3480156109a457600080fd5b5061039c6109b3366004615495565b6140d9565b3480156109c457600080fd5b5061039c6109d336600461518c565b614171565b3480156109e457600080fd5b506103766109f336600461516f565b614268565b348015610a0457600080fd5b50610376610a1336600461540d565b6142ae565b348015610a2457600080fd5b5061037660085481565b60026001541415610a5a5760405162461bcd60e51b8152600401610a5190615547565b60405180910390fd5b600260015560195460ff821610610a7057610be6565b600654610a7c57610be6565b610a8461445b565b610a8d81614544565b336000908152601a6020526040812090805b8254811015610b71576000838281548110610abc57610abc61557e565b60009182526020909120600690910201805490915060ff868116911614610ae35750610b5f565b6001810154610af25750610b5f565b6000610b278260050154610b21601054610b1b60145487600101546146b690919063ffffffff16565b906146c9565b906146d5565b9050610b3384826146e1565b9350610b54601054610b1b60145485600101546146b690919063ffffffff16565b826005018190555050505b80610b69816155aa565b915050610a9f565b508015610be3576013546001600160a01b0316610bbb57604051339082156108fc029083906000818181858888f19350505050158015610bb5573d6000803e3d6000fd5b50610bd2565b601354610bd2906001600160a01b031633836146ed565b601754610bdf90826146d5565b6017555b50505b5060018055565b60026001541415610c105760405162461bcd60e51b8152600401610a5190615547565b600260015560195460ff821610610c2657610be6565b336000908152601b60209081526040808320601a9092528220601980549293919260ff8616908110610c5a57610c5a61557e565b906000526020600020906008020190506000805b8354811015610cff576000848281548110610c8b57610c8b61557e565b60009182526020909120600690910201805490915060ff888116911614610cb25750610ced565b6001810154610cc15750610ced565b6001810154610cd19084906146e1565b6000600183018190556004830181905560059092019190915591505b80610cf7816155aa565b915050610c6e565b508015610d5057601154610d1d906001600160a01b031633836146ed565b8354610d2990826146d5565b84556007820154610d3a90826146d5565b6007830155601554610d4c90826146d5565b6015555b60405181815233907f5fafa99d0643513820be26656b45130b01e1c03062e1266bf36f88cbd3bd96959060200160405180910390a2505050505060018055565b600a8181548110610da057600080fd5b6000918252602090912001546001600160a01b0316905081565b6000546001600160a01b03163314610de45760405162461bcd60e51b8152600401610a51906155c5565b60195460ff861610610e2b5760405162461bcd60e51b815260206004820152601060248201526f131bd8dadd5c08139bdd08199bdd5b9960821b6044820152606401610a51565b6107d08310610e725760405162461bcd60e51b8152602060048201526013602482015272496e76616c6964206465706f7369742066656560681b6044820152606401610a51565b6107d08210610eba5760405162461bcd60e51b8152602060048201526014602482015273496e76616c69642077697468647261772066656560601b6044820152606401610a51565b610ec385614544565b600060198660ff1681548110610edb57610edb61557e565b6000918252602091829020600890910201600181018790556002810186905560038101859055600481018490556040805160ff8a1681529283018890528201869052606082018590526080820184905291507f2a9378497cb60e247e83eb6f2c7c371ba979e24ee25723c2e3275822b31717599060a00160405180910390a1505050505050565b60026001541415610f855760405162461bcd60e51b8152600401610a5190615547565b600260015560195460ff821610610f9b57610be6565b600654610fa757610be6565b610faf61445b565b610fb881614544565b336000908152601b60209081526040808320601a9092528220601980549293919260ff8616908110610fec57610fec61557e565b9060005260206000209060080201905060008060005b845481101561139257600085828154811061101f5761101f61557e565b60009182526020909120600690910201805490915060ff8981169116146110465750611380565b60018101546110555750611380565b600061107e8260050154610b21601054610b1b60145487600101546146b690919063ffffffff16565b905061108a85826146e1565b6013546011549196506001600160a01b039182169116148015906110ae5750600081115b156112db576013546001600160a01b031661118957600954604080516315ab88c960e31b815290516000926001600160a01b03169163ad5c46489160048083019260209291908290030181865afa15801561110d573d6000803e3d6000fd5b505050506040513d601f19601f8201168201806040525081019061113191906155fa565b9050806001600160a01b031663d0e30db0836040518263ffffffff1660e01b81526004016000604051808303818588803b15801561116e57600080fd5b505af1158015611182573d6000803e3d6000fd5b5050505050505b6011546040516370a0823160e01b81523060048201526000916001600160a01b0316906370a0823190602401602060405180830381865afa1580156111d2573d6000803e3d6000fd5b505050506040513d601f19601f820116820180604052508101906111f69190615617565b905061125d82600a80548060200260200160405190810160405280929190818152602001828054801561125257602002820191906000526020600020905b81546001600160a01b03168152600190910190602001808311611234575b505050505030614755565b6011546040516370a0823160e01b81523060048201526000916001600160a01b0316906370a0823190602401602060405180830381865afa1580156112a6573d6000803e3d6000fd5b505050506040513d601f19601f820116820180604052508101906112ca9190615617565b90506112d681836146d5565b925050505b6112e584826146e1565b60018301549094506112f790826146e1565b82600101819055506113566113358360040154610b21600f54610b1b8b6005015461132f888a600101546146d590919063ffffffff16565b906146b6565b610b21600f54610b1b8a6005015487600101546146b690919063ffffffff16565b600483015560105460145460018401546113759291610b1b91906146b6565b826005018190555050505b8061138a816155aa565b915050611002565b506017546113a090836146d5565b60175581156114085784546113b590826146e1565b855560078301546113c690826146e1565b60078401556015546113d890826146e1565b6015556040805160ff881681526020810183905233916000805160206159ec833981519152910160405180910390a25b50505050505060018055565b6000546001600160a01b0316331461143e5760405162461bcd60e51b8152600401610a51906155c5565b60075443116114815760405162461bcd60e51b815260206004820152600f60248201526e506f6f6c2069732072756e6e696e6760881b6044820152606401610a51565b6013546012546001600160a01b039081169116146114c057806114a2613c2c565b10156114c05760405162461bcd60e51b8152600401610a5190615630565b6012546114d7906001600160a01b031633836146ed565b60165415611502576016548111156114f157600060165550565b6016546114fe90826146d5565b6016555b50565b6000546001600160a01b0316331461152f5760405162461bcd60e51b8152600401610a51906155c5565b6115376148be565b565b6000546001600160a01b031633146115635760405162461bcd60e51b8152600401610a51906155c5565b6012546001600160a01b03838116911614156115ba5760405162461bcd60e51b815260206004820152601660248201527521b0b73737ba103132903932bbb0b932103a37b5b2b760511b6044820152606401610a51565b6011546001600160a01b038381169116141561169c576011546040516370a0823160e01b81523060048201526000916001600160a01b0316906370a0823190602401602060405180830381865afa158015611619573d6000803e3d6000fd5b505050506040513d601f19601f8201168201806040525081019061163d9190615617565b9050611654601554826146d590919063ffffffff16565b82111561169a5760405162461bcd60e51b8152602060048201526014602482015273496e73756666696369656e742062616c616e636560601b6044820152606401610a51565b505b6001600160a01b0382166116dd57604051339082156108fc029083906000818181858888f193505050501580156116d7573d6000803e3d6000fd5b506116f1565b6116f16001600160a01b03831633836146ed565b604080516001600160a01b0384168152602081018390527f74f5dcd55c394cb1c6d3b9da22c2464bcc46c38cc3865bd629ed75823249b40b91015b60405180910390a15050565b6000546001600160a01b031633146117625760405162461bcd60e51b8152600401610a51906155c5565b6107d083106117a95760405162461bcd60e51b8152602060048201526013602482015272496e76616c6964206465706f7369742066656560681b6044820152606401610a51565b6107d082106117f15760405162461bcd60e51b8152602060048201526014602482015273496e76616c69642077697468647261772066656560601b6044820152606401610a51565b6019805460019081018083556000838152929161180d91615667565b8154811061181d5761181d61557e565b6000918252602090912060016008909202018181018790556002810186905560038101859055600481018490554360068201556019549092507f2a9378497cb60e247e83eb6f2c7c371ba979e24ee25723c2e3275822b31717599161188191615667565b6040805160ff9092168252602082018890528101869052606081018590526080810184905260a0015b60405180910390a15050505050565b6000546001600160a01b031633146118e35760405162461bcd60e51b8152600401610a51906155c5565b6118ed6000614544565b6011546040516370a0823160e01b81523060048201526000916001600160a01b0316906370a0823190602401602060405180830381865afa158015611936573d6000803e3d6000fd5b505050506040513d601f19601f8201168201806040525081019061195a9190615617565b9050611971601554826146d590919063ffffffff16565b90506000611996601854610b21601054610b1b601454876146b690919063ffffffff16565b90508015611a1c576013546001600160a01b03166119ee57600c546040516001600160a01b039091169082156108fc029083906000818181858888f193505050501580156119e8573d6000803e3d6000fd5b50611a0b565b600c54601354611a0b916001600160a01b039182169116836146ed565b601754611a1890826146d5565b6017555b611a37601054610b1b601454856146b690919063ffffffff16565b6018555050565b600254600160a01b900460ff1615611a8e5760405162461bcd60e51b8152602060048201526013602482015272105b1c9958591e481a5b9a5d1a585b1a5e9959606a1b6044820152606401610a51565b6002546001600160a01b03163314611ad65760405162461bcd60e51b815260206004820152600b60248201526a4e6f7420666163746f727960a81b6044820152606401610a51565b6002805460ff60a01b1916600160a01b179055601180546001600160a01b038089166001600160a01b0319928316179092556012805488841690831681179091556013805493881693831693909317909255600c8054909116331790556040805163313ce56760e01b815290516000929163313ce5679160048083019260209291908290030181865afa158015611b71573d6000803e3d6000fd5b505050506040513d601f19601f82011682018060405250810190611b95919061567e565b60ff169050601e8110611be35760405162461bcd60e51b815260206004820152601660248201527504d75737420626520696e666572696f7220746f2033360541b6044820152606401610a51565b611bee6028826146d5565b611bf990600a61577f565b600f556013546012906001600160a01b031615611cd557601360009054906101000a90046001600160a01b03166001600160a01b031663313ce5676040518163ffffffff1660e01b8152600401602060405180830381865afa158015611c63573d6000803e3d6000fd5b505050506040513d601f19601f82011682018060405250810190611c87919061567e565b60ff169050601e8110611cd55760405162461bcd60e51b815260206004820152601660248201527504d75737420626520696e666572696f7220746f2033360541b6044820152606401610a51565b611ce06028826146d5565b611ceb90600a61577f565b601055600980546001600160a01b0319166001600160a01b0387161790558351611d1c90600b9060208701906150e6565b508251611d3090600a9060208601906150e6565b506019604051806101000160405280600060ff168152602001601e81526020016000815260200160008152602001695093e52ccaaaae54e600815260200160008152602001600081526020016000815250908060018154018082558091505060019003906000526020600020906008020160009091909190915060008201518160000160006101000a81548160ff021916908360ff1602179055506020820151816001015560408201518160020155606082015181600301556080820151816004015560a0820151816005015560c0820151816006015560e0820151816007015550506019604051806101000160405280600160ff168152602001603c815260200160008152602001600081526020016978ddd7c32fffe7b1f400815260200160008152602001600081526020016000815250908060018154018082558091505060019003906000526020600020906008020160009091909190915060008201518160000160006101000a81548160ff021916908360ff1602179055506020820151816001015560408201518160020155606082015181600301556080820151816004015560a0820151816005015560c0820151816006015560e082015181600701555050611efd6148be565b5050505050505050565b60026001541415611f2a5760405162461bcd60e51b8152600401610a5190615547565b600260015581611f7c5760405162461bcd60e51b815260206004820152601f60248201527f416d6f756e742073686f756c642062652067726561746f72207468616e2030006044820152606401610a51565b60195460ff821610611fc55760405162461bcd60e51b8152602060048201526012602482015271496e76616c6964207374616b65207479706560701b6044820152606401610a51565b611fce81614544565b336000908152601b60209081526040808320601a9092528220601980549293919260ff86169081106120025761200261557e565b9060005260206000209060080201905060008060008060005b86548110156122ed5760008782815481106120385761203861557e565b60009182526020909120600690910201805490915060ff8b811691161461205f57506122db565b600181015461206e57506122db565b61209f6120988260050154610b21601054610b1b60145487600101546146b690919063ffffffff16565b85906146e1565b935060006120cc8260040154610b21600f54610b1b8c6005015487600101546146b690919063ffffffff16565b90504282600301541115612283576120e486826146e1565b6012546011549197506001600160a01b039182169116148015906121085750600081115b1561225d576011546040516370a0823160e01b81523060048201526000916001600160a01b0316906370a0823190602401602060405180830381865afa158015612156573d6000803e3d6000fd5b505050506040513d601f19601f8201168201806040525081019061217a9190615617565b90506121df82600b805480602002602001604051908101604052809291908181526020018280548015611252576020028201919060005260206000209081546001600160a01b0316815260019091019060200180831161123457505050505030614755565b6011546040516370a0823160e01b81523060048201526000916001600160a01b0316906370a0823190602401602060405180830381865afa158015612228573d6000803e3d6000fd5b505050506040513d601f19601f8201168201806040525081019061224c9190615617565b905061225881836146d5565b925050505b61226784826146e1565b600183015490945061227990826146e1565b6001830155612290565b61228d87826146e1565b96505b6122b1600f54610b1b8a6005015485600101546146b690919063ffffffff16565b600483015560105460145460018401546122d09291610b1b91906146b6565b826005018190555050505b806122e5816155aa565b91505061201b565b50831561235757836122fd613c2c565b101561231b5760405162461bcd60e51b8152600401610a5190615630565b601254612332906001600160a01b031633866146ed565b8360165411156123515760165461234990856146d5565b601655612357565b60006016555b82156123a95782612366613c2c565b10156123845760405162461bcd60e51b8152600401610a5190615630565b8260165411156123a35760165461239b90846146d5565b6016556123a9565b60006016555b811561241a576013546001600160a01b03166123f257604051339083156108fc029084906000818181858888f193505050501580156123ec573d6000803e3d6000fd5b50612409565b601354612409906001600160a01b031633846146ed565b60175461241690836146d5565b6017555b6011546040516370a0823160e01b81523060048201526000916001600160a01b0316906370a0823190602401602060405180830381865afa158015612463573d6000803e3d6000fd5b505050506040513d601f19601f820116820180604052508101906124879190615617565b6011549091506124a2906001600160a01b031633308d6149f0565b6011546040516370a0823160e01b81523060048201526000916001600160a01b0316906370a0823190602401602060405180830381865afa1580156124eb573d6000803e3d6000fd5b505050506040513d601f19601f8201168201806040525081019061250f9190615617565b9050600061251d82846146d5565b60045490915060ff1615612589576005548a5461253b9083906146e1565b11156125895760405162461bcd60e51b815260206004820152601760248201527f5573657220616d6f756e742061626f7665206c696d69740000000000000000006044820152606401610a51565b6002880154156125e65760006125b2612710610b1b8b60020154856146b690919063ffffffff16565b905080156125e457600c546011546125d7916001600160a01b039182169116836146ed565b6125e182826146d5565b91505b505b6125f68b338a6001015484614a2e565b895461260e90859061260890846146e1565b906146e1565b8a55600788015461262590859061260890846146e1565b600789015560155461263d90859061260890846146e1565b601555336000805160206159ec8339815191528c61265b84886146e1565b6040805160ff909316835260208301919091520160405180910390a250506001805550505050505050505050565b600260015414156126ac5760405162461bcd60e51b8152600401610a5190615547565b600260015560195460ff8216106126c257610be6565b6006546126ce57610be6565b6126d661445b565b6126df81614544565b336000908152601b60209081526040808320601a9092528220601980549293919260ff86169081106127135761271361557e565b906000526020600020906008020190506000806000805b85548110156129ff5760008682815481106127475761274761557e565b60009182526020909120600690910201805490915060ff8a811691161461276e57506129ed565b600181015461277d57506129ed565b60006127a88260040154610b21600f54610b1b8b6005015487600101546146b690919063ffffffff16565b905042826003015411156129b4576127c085826146e1565b6012546011549196506001600160a01b039182169116148015906127e45750600081115b15612939576011546040516370a0823160e01b81523060048201526000916001600160a01b0316906370a0823190602401602060405180830381865afa158015612832573d6000803e3d6000fd5b505050506040513d601f19601f820116820180604052508101906128569190615617565b90506128bb82600b805480602002602001604051908101604052809291908181526020018280548015611252576020028201919060005260206000209081546001600160a01b0316815260019091019060200180831161123457505050505030614755565b6011546040516370a0823160e01b81523060048201526000916001600160a01b0316906370a0823190602401602060405180830381865afa158015612904573d6000803e3d6000fd5b505050506040513d601f19601f820116820180604052508101906129289190615617565b905061293481836146d5565b925050505b61294384826146e1565b600183015490945061295590826146e1565b82600101819055506129aa61298b8360050154610b21601054610b1b60145461132f888a600101546146d590919063ffffffff16565b610b21601054610b1b60145487600101546146b690919063ffffffff16565b60058301556129c1565b6129be86826146e1565b95505b6129e2600f54610b1b896005015485600101546146b690919063ffffffff16565b826004018190555050505b806129f7816155aa565b91505061272a565b508215612a695782612a0f613c2c565b1015612a2d5760405162461bcd60e51b8152600401610a5190615630565b601254612a44906001600160a01b031633856146ed565b826016541115612a6357601654612a5b90846146d5565b601655612a69565b60006016555b8115612b1a5781612a78613c2c565b1015612a965760405162461bcd60e51b8152600401610a5190615630565b816016541115612ab557601654612aad90836146d5565b601655612abb565b60006016555b8554612ac790826146e1565b86556007840154612ad890826146e1565b6007850155601554612aea90826146e1565b6015556040805160ff891681526020810183905233916000805160206159ec833981519152910160405180910390a25b5050505050505060018055565b60195460009060ff831610612b3e57506000612cc7565b600654612b4d57506000612cc7565b6001600160a01b0383166000908152601a60205260409020601554612b76576000915050612cc7565b6000612b80613e6d565b6011546040516370a0823160e01b81523060048201529192506000916001600160a01b03909116906370a0823190602401602060405180830381865afa158015612bce573d6000803e3d6000fd5b505050506040513d601f19601f82011682018060405250810190612bf29190615617565b90506000612c21612c1883610b1b60105461132f601754896146d590919063ffffffff16565b601454906146e1565b90506000805b8554811015612cbf576000868281548110612c4457612c4461557e565b60009182526020909120600690910201805490915060ff8a8116911614612c6b5750612cad565b6001810154612c7a5750612cad565b612ca9612ca28260050154610b21601054610b1b8987600101546146b690919063ffffffff16565b84906146e1565b9250505b80612cb7816155aa565b915050612c27565b509450505050505b92915050565b6000546001600160a01b03163314612cf75760405162461bcd60e51b8152600401610a51906155c5565b6115376000614c4b565b6000546001600160a01b03163314612d2b5760405162461bcd60e51b8152600401610a51906155c5565b60065415612d765760405162461bcd60e51b8152602060048201526018602482015277141bdbdb081dd85cc8185b1c9958591e481cdd185c9d195960421b6044820152606401610a51565b612d814360646146e1565b600655600354612da090612d979061708061578b565b600654906146e1565b60075560005b601954811015612dec5760065460198281548110612dc657612dc661557e565b600091825260209091206006600890920201015580612de4816155aa565b915050612da6565b507f7cd0ab87d19036f3dfadadb232c78aa4879dda3f0c994a9d637532410ee2ce06600654600754604051612e2b929190918252602082015260400190565b60405180910390a1565b6001600160a01b0381166000908152601a6020526040812081908190815b8154811015612f02576000828281548110612e7057612e7061557e565b60009182526020909120600690910201805490915060ff898116911614612e975750612ef0565b6001810154612ea65750612ef0565b6001810154612eb69087906146e1565b95508060030154421115612edb576001810154612ed49086906146e1565b9450612eee565b6001810154612eeb9085906146e1565b93505b505b80612efa816155aa565b915050612e53565b50509250925092565b60026001541415612f2e5760405162461bcd60e51b8152600401610a5190615547565b600260015560195460ff821610612f4457610be6565b600654612f5057610be6565b612f5861445b565b612f6181614544565b336000908152601b60209081526040808320601a9092528220601980549293919260ff8616908110612f9557612f9561557e565b9060005260206000209060080201905060008060005b8454811015613239576000858281548110612fc857612fc861557e565b60009182526020909120600690910201805490915060ff898116911614612fef5750613227565b6001810154612ffe5750613227565b60006130298260040154610b21600f54610b1b8a6005015487600101546146b690919063ffffffff16565b905061303585826146e1565b6012546011549196506001600160a01b039182169116148015906130595750600081115b156131ae576011546040516370a0823160e01b81523060048201526000916001600160a01b0316906370a0823190602401602060405180830381865afa1580156130a7573d6000803e3d6000fd5b505050506040513d601f19601f820116820180604052508101906130cb9190615617565b905061313082600b805480602002602001604051908101604052809291908181526020018280548015611252576020028201919060005260206000209081546001600160a01b0316815260019091019060200180831161123457505050505030614755565b6011546040516370a0823160e01b81523060048201526000916001600160a01b0316906370a0823190602401602060405180830381865afa158015613179573d6000803e3d6000fd5b505050506040513d601f19601f8201168201806040525081019061319d9190615617565b90506131a981836146d5565b925050505b6131b884826146e1565b60018301549094506131ca90826146e1565b60018301819055600f5460058801546131e692610b1b916146b6565b826004018190555061321c61298b8360050154610b21601054610b1b60145461132f888a600101546146d590919063ffffffff16565b826005018190555050505b80613231816155aa565b915050612fab565b5081156114085781613249613c2c565b10156132675760405162461bcd60e51b8152600401610a5190615630565b8160165411156132865760165461327e90836146d5565b60165561328c565b60006016555b84546113b590826146e1565b6000546001600160a01b031633146132c25760405162461bcd60e51b8152600401610a51906155c5565b43600755565b600d546001600160a01b031633146133225760405162461bcd60e51b815260206004820152601960248201527f73657453657276696365496e666f3a20464f5242494444454e000000000000006044820152606401610a51565b6001600160a01b0382161515806133475750600d546001600160a01b03838116911614155b6133855760405162461bcd60e51b815260206004820152600f60248201526e496e76616c6964206164647265737360881b6044820152606401610a51565b600d80546001600160a01b0319166001600160a01b038416908117909155600e82905560408051918252602082018390527f232f2e6280d2064b1e439bf40ecdada042d84eefbb55039e4c49e8dc4f4c90c9910161172c565b600260015414156134015760405162461bcd60e51b8152600401610a5190615547565b60026001558061341057600080fd5b6012546040516370a0823160e01b81523060048201526000916001600160a01b0316906370a0823190602401602060405180830381865afa158015613459573d6000803e3d6000fd5b505050506040513d601f19601f8201168201806040525081019061347d9190615617565b601254909150613498906001600160a01b03163330856149f0565b6012546040516370a0823160e01b81523060048201526000916001600160a01b0316906370a0823190602401602060405180830381865afa1580156134e1573d6000803e3d6000fd5b505050506040513d601f19601f820116820180604052508101906135059190615617565b905061352082610b21836016546146e190919063ffffffff16565b60165550506001805550565b6019818154811061353c57600080fd5b60009182526020909120600890910201805460018201546002830154600384015460048501546005860154600687015460079097015460ff90961697509395929491939092909188565b600260015414156135a95760405162461bcd60e51b8152600401610a5190615547565b6002600155816135fb5760405162461bcd60e51b815260206004820152601f60248201527f416d6f756e742073686f756c642062652067726561746f72207468616e2030006044820152606401610a51565b60195460ff8216106136445760405162461bcd60e51b8152602060048201526012602482015271496e76616c6964207374616b65207479706560701b6044820152606401610a51565b61364d81614544565b336000908152601b60209081526040808320601a9092528220601980549293919260ff86169081106136815761368161557e565b600091825260208220600890910201915080808088815b87548110156139bc5760008882815481106136b5576136b561557e565b60009182526020909120600690910201805490915060ff8c81169116146136dc57506139aa565b60018101546136eb57506139aa565b826136f657506139bc565b60006137218260040154610b21600f54610b1b8d6005015487600101546146b690919063ffffffff16565b9050600061374c8360050154610b21601054610b1b60145488600101546146b690919063ffffffff16565b905061375887826146e1565b9650428360030154111561390f5761377088836146e1565b6012546011549199506001600160a01b039182169116148015906137945750600082115b156138e9576011546040516370a0823160e01b81523060048201526000916001600160a01b0316906370a0823190602401602060405180830381865afa1580156137e2573d6000803e3d6000fd5b505050506040513d601f19601f820116820180604052508101906138069190615617565b905061386b83600b805480602002602001604051908101604052809291908181526020018280548015611252576020028201919060005260206000209081546001600160a01b0316815260019091019060200180831161123457505050505030614755565b6011546040516370a0823160e01b81523060048201526000916001600160a01b0316906370a0823190602401602060405180830381865afa1580156138b4573d6000803e3d6000fd5b505050506040513d601f19601f820116820180604052508101906138d89190615617565b90506138e481836146d5565b935050505b6138f386836146e1565b600184015490965061390590836146e1565b600184015561395e565b61391989836146e1565b9850848360010154111561394457600183015461393690866146d5565b60018401556000945061395e565b60018301546139549086906146d5565b6000600185015594505b61397f600f54610b1b8c6005015486600101546146b690919063ffffffff16565b6004840155601054601454600185015461399e9291610b1b91906146b6565b83600501819055505050505b806139b4816155aa565b915050613698565b508415613a2657846139cc613c2c565b10156139ea5760405162461bcd60e51b8152600401610a5190615630565b601254613a01906001600160a01b031633876146ed565b846016541115613a2057601654613a1890866146d5565b601655613a26565b60006016555b8315613aa55783613a35613c2c565b1015613a535760405162461bcd60e51b8152600401610a5190615630565b836016541115613a7257601654613a6a90856146d5565b601655613a78565b60006016555b6040805160ff8b1681526020810184905233916000805160206159ec833981519152910160405180910390a25b8215613b16576013546001600160a01b0316613aee57604051339084156108fc029085906000818181858888f19350505050158015613ae8573d6000803e3d6000fd5b50613b05565b601354613b05906001600160a01b031633856146ed565b601754613b1290846146d5565b6017555b6000613b228b836146d5565b8954909150613b3790869061260890846146d5565b89556007870154613b4e90869061260890846146d5565b6007880155601554613b6690869061260890846146d5565b6015558015613bdd57600387015415613bc6576000613b98612710610b1b8a60030154856146b690919063ffffffff16565b600c54601154919250613bb8916001600160a01b039081169116836146ed565b613bc282826146d5565b9150505b601154613bdd906001600160a01b031633836146ed565b6040805160ff8c1681526020810183905233917ff279e6a1f5e320cca91135676d9cb6e44ca8a08c0b88342bcdb1144f6511b568910160405180910390a2505060018055505050505050505050565b6013546012546000916001600160a01b0391821691161415613c4f575060165490565b6012546040516370a0823160e01b81523060048201526000916001600160a01b0316906370a0823190602401602060405180830381865afa158015613c98573d6000803e3d6000fd5b505050506040513d601f19601f82011682018060405250810190613cbc9190615617565b6011546012549192506001600160a01b0391821691161415613cfe57601554811015613cea57600091505090565b601554613cf89082906146d5565b91505090565b919050565b6000546001600160a01b03163314613d2d5760405162461bcd60e51b8152600401610a51906155c5565b60045460ff16613d6d5760405162461bcd60e51b815260206004820152600b60248201526a135d5cdd081899481cd95d60aa1b6044820152606401610a51565b8115613dce576005548111613dc45760405162461bcd60e51b815260206004820152601860248201527f4e6577206c696d6974206d7573742062652068696768657200000000000000006044820152606401610a51565b6005819055613de2565b6004805460ff191683151517905560006005555b7f241f67ee5f41b7a5cabf911367329be7215900f602ebfc47f89dce2a6bcd847c60055460405161172c91815260200190565b601a6020528160005260406000208181548110613e3157600080fd5b600091825260209091206006909102018054600182015460028301546003840154600485015460059095015460ff909416965091945092909186565b6013546000906001600160a01b0316613e8557504790565b6013546040516370a0823160e01b81523060048201526000916001600160a01b0316906370a0823190602401602060405180830381865afa158015613ece573d6000803e3d6000fd5b505050506040513d601f19601f82011682018060405250810190613ef29190615617565b6012546013549192506001600160a01b0391821691161415613f3157601654811015613f2057600091505090565b601654613f2e9082906146d5565b90505b6011546013546001600160a01b0390811691161415613cfe57601554811015613f5c57600091505090565b601554612cc79082906146d5565b600b8181548110610da057600080fd5b6000546001600160a01b03163314613fa45760405162461bcd60e51b8152600401610a51906155c5565b6103e3851115613ff65760405162461bcd60e51b815260206004820152601860248201527f5f736c697070616765466163746f7220746f6f206869676800000000000000006044820152606401610a51565b6001600160a01b03811661403e5760405162461bcd60e51b815260206004820152600f60248201526e496e76616c6964204164647265737360881b6044820152606401610a51565b6008859055600980546001600160a01b0319166001600160a01b038616179055815161407190600a9060208501906150e6565b50825161408590600b9060208601906150e6565b50600c80546001600160a01b0319166001600160a01b0383161790556040517f0fae0d0e8768c1e54ef03d02ab9a3aea954cb05c643b8650d09b989b2cb27ac7906118aa90879087908790879087906157ee565b6000546001600160a01b031633146141035760405162461bcd60e51b8152600401610a51906155c5565b6001600160a01b0381166141685760405162461bcd60e51b815260206004820152602660248201527f4f776e61626c653a206e6577206f776e657220697320746865207a65726f206160448201526564647265737360d01b6064820152608401610a51565b61150281614c4b565b6000546001600160a01b0316331461419b5760405162461bcd60e51b8152600401610a51906155c5565b600654156141e65760405162461bcd60e51b8152602060048201526018602482015277141bdbdb081dd85cc8185b1c9958591e481cdd185c9d195960421b6044820152606401610a51565b601e81101561422d5760405162461bcd60e51b81526020600482015260136024820152721b1bddd95c881b1a5b5a5d081c995858da1959606a1b6044820152606401610a51565b60038190556040518181527f91abcc2d6823e3a3f11d31b208dd3065d2c6a791f1c7c9fe96a42ce12897eac59060200160405180910390a150565b60195460009060ff83161061427f57506000919050565b60198260ff16815481106142955761429561557e565b9060005260206000209060080201600401549050919050565b60195460009060ff8316106142c557506000612cc7565b6006546142d457506000612cc7565b6001600160a01b0383166000908152601a602052604081206019805491929160ff86169081106143065761430661557e565b9060005260206000209060080201905080600701546000141561432e57600092505050612cc7565b60058101546006820154431180156143495750600782015415155b8015614359575060008260060154115b156143bb57600061436e836006015443614c9b565b905060006143898460040154836146b690919063ffffffff16565b90506143b66143ab8560070154610b1b600f54856146b690919063ffffffff16565b6005860154906146e1565b925050505b6000805b84548110156144505760008582815481106143dc576143dc61557e565b60009182526020909120600690910201805490915060ff898116911614614403575061443e565b6001810154614412575061443e565b61443a612ca28260040154610b21600f54610b1b8987600101546146b690919063ffffffff16565b9250505b80614448816155aa565b9150506143bf565b509695505050505050565b600e543410156144c15760405162461bcd60e51b815260206004820152602b60248201527f73686f756c642070617920736d616c6c2067617320746f20636f6d706f756e6460448201526a081bdc881a185c9d995cdd60aa1b6064820152608401610a51565b600d54600e546040516001600160a01b039092169181156108fc0291906000818181858888f193505050501580156144fd573d6000803e3d6000fd5b50600e5434111561153757600e5433906108fc9061451c9034906146d5565b6040518115909202916000818181858888f19350505050158015611502573d6000803e3d6000fd5b601554156145f4576000614556613e6d565b6011546040516370a0823160e01b81523060048201529192506000916001600160a01b03909116906370a0823190602401602060405180830381865afa1580156145a4573d6000803e3d6000fd5b505050506040513d601f19601f820116820180604052508101906145c89190615617565b90506145ec612c1882610b1b60105461132f601754886146d590919063ffffffff16565b601455506017555b600060198260ff168154811061460c5761460c61557e565b9060005260206000209060080201905080600601544311158061463157506006810154155b1561463a575050565b600781015461464d574360069091015550565b600061465d826006015443614c9b565b905060006146788360040154836146b690919063ffffffff16565b90506146a561469a8460070154610b1b600f54856146b690919063ffffffff16565b6005850154906146e1565b600584015550504360069091015550565b60006146c2828461578b565b9392505050565b60006146c2828461583e565b60006146c28284615667565b60006146c28284615860565b6040516001600160a01b03831660248201526044810182905261475090849063a9059cbb60e01b906064015b60408051601f198184030181529190526020810180516001600160e01b03166001600160e01b031990931692909217909152614cd5565b505050565b60095460405163d06ca61f60e01b81526000916001600160a01b03169063d06ca61f906147889087908790600401615878565b600060405180830381865afa1580156147a5573d6000803e3d6000fd5b505050506040513d6000823e601f3d908101601f191682016040526147cd9190810190615891565b90506000816147e7600184516146d590919063ffffffff16565b815181106147f7576147f761557e565b60200260200101519050600960009054906101000a90046001600160a01b03166001600160a01b03166338ed1739866148416103e8610b1b600854876146b690919063ffffffff16565b878761484f426102586146e1565b6040518663ffffffff1660e01b815260040161486f959493929190615917565b6000604051808303816000875af115801561488e573d6000803e3d6000fd5b505050506040513d6000823e601f3d908101601f191682016040526148b69190810190615891565b505050505050565b6009546012546148dc916001600160a01b0391821691166000614da7565b6009546012546148fb916001600160a01b039182169116600019614ebc565b6013546001600160a01b03166149b357600954604080516315ab88c960e31b815290516000926001600160a01b03169163ad5c46489160048083019260209291908290030181865afa158015614955573d6000803e3d6000fd5b505050506040513d601f19601f8201168201806040525081019061497991906155fa565b600954909150614997906001600160a01b0380841691166000614da7565b600954611502906001600160a01b038381169116600019614ebc565b6009546013546149d1916001600160a01b0391821691166000614da7565b600954601354611537916001600160a01b039182169116600019614ebc565b6040516001600160a01b0380851660248301528316604482015260648101829052614a289085906323b872dd60e01b90608401614719565b50505050565b6001600160a01b0383166000908152601a6020526040812090614a5e614a5785620151806146b6565b42906146e1565b82549091506101008110614aa15760405162461bcd60e51b815260206004820152600a6024820152694d6178207374616b657360b01b6044820152606401610a51565b8254600101835560008390525b8015801590614ae957508183614ac5600184615667565b81548110614ad557614ad561557e565b906000526020600020906006020160030154115b15614b945782614afa600183615667565b81548110614b0a57614b0a61557e565b9060005260206000209060060201838281548110614b2a57614b2a61557e565b600091825260209091208254600690920201805460ff191660ff909216919091178155600180830154818301556002808401549083015560038084015490830155600480840154908301556005928301549290910191909155614b8d9082615667565b9050614aae565b600060198860ff1681548110614bac57614bac61557e565b906000526020600020906008020190506000848381548110614bd057614bd061557e565b60009182526020909120600690910201805460ff191660ff8b16178155600281018890556003810185905560018101879055600f546005840154919250614c1c91610b1b9089906146b6565b60048201556010546014546001830154614c3b9291610b1b91906146b6565b6005909101555050505050505050565b600080546001600160a01b038381166001600160a01b0319831681178455604051919092169283917f8be0079c531659141344cd1fd0a4f28419497f9722a3daafe3b4186f6b6457e09190a35050565b60006007548211614cb757614cb082846146d5565b9050612cc7565b6007548310614cc857506000612cc7565b600754614cb090846146d5565b6000614d2a826040518060400160405280602081526020017f5361666545524332303a206c6f772d6c6576656c2063616c6c206661696c6564815250856001600160a01b0316614f6e9092919063ffffffff16565b8051909150156147505780806020019051810190614d489190615953565b6147505760405162461bcd60e51b815260206004820152602a60248201527f5361666545524332303a204552433230206f7065726174696f6e20646964206e6044820152691bdd081cdd58d8d9595960b21b6064820152608401610a51565b801580614e215750604051636eb1769f60e11b81523060048201526001600160a01b03838116602483015284169063dd62ed3e90604401602060405180830381865afa158015614dfb573d6000803e3d6000fd5b505050506040513d601f19601f82011682018060405250810190614e1f9190615617565b155b614e8c5760405162461bcd60e51b815260206004820152603660248201527f5361666545524332303a20617070726f76652066726f6d206e6f6e2d7a65726f60448201527520746f206e6f6e2d7a65726f20616c6c6f77616e636560501b6064820152608401610a51565b6040516001600160a01b03831660248201526044810182905261475090849063095ea7b360e01b90606401614719565b604051636eb1769f60e11b81523060048201526001600160a01b038381166024830152600091839186169063dd62ed3e90604401602060405180830381865afa158015614f0d573d6000803e3d6000fd5b505050506040513d601f19601f82011682018060405250810190614f319190615617565b614f3b9190615860565b6040516001600160a01b038516602482015260448101829052909150614a2890859063095ea7b360e01b90606401614719565b6060614f7d8484600085614f85565b949350505050565b606082471015614fe65760405162461bcd60e51b815260206004820152602660248201527f416464726573733a20696e73756666696369656e742062616c616e636520666f6044820152651c8818d85b1b60d21b6064820152608401610a51565b843b6150345760405162461bcd60e51b815260206004820152601d60248201527f416464726573733a2063616c6c20746f206e6f6e2d636f6e74726163740000006044820152606401610a51565b600080866001600160a01b03168587604051615050919061599c565b60006040518083038185875af1925050503d806000811461508d576040519150601f19603f3d011682016040523d82523d6000602084013e615092565b606091505b50915091506150a28282866150ad565b979650505050505050565b606083156150bc5750816146c2565b8251156150cc5782518084602001fd5b8160405162461bcd60e51b8152600401610a5191906159b8565b82805482825590600052602060002090810192821561513b579160200282015b8281111561513b57825182546001600160a01b0319166001600160a01b03909116178255602090920191600190910190615106565b5061514792915061514b565b5090565b5b80821115615147576000815560010161514c565b60ff8116811461150257600080fd5b60006020828403121561518157600080fd5b81356146c281615160565b60006020828403121561519e57600080fd5b5035919050565b600080600080600060a086880312156151bd57600080fd5b85356151c881615160565b97602087013597506040870135966060810135965060800135945092505050565b6001600160a01b038116811461150257600080fd5b6000806040838503121561521157600080fd5b823561521c816151e9565b946020939093013593505050565b6000806000806080858703121561524057600080fd5b5050823594602084013594506040840135936060013592509050565b634e487b7160e01b600052604160045260246000fd5b604051601f8201601f1916810167ffffffffffffffff8111828210171561529b5761529b61525c565b604052919050565b600067ffffffffffffffff8211156152bd576152bd61525c565b5060051b60200190565b600082601f8301126152d857600080fd5b813560206152ed6152e8836152a3565b615272565b82815260059290921b8401810191818101908684111561530c57600080fd5b8286015b84811015614450578035615323816151e9565b8352918301918301615310565b60008060008060008060c0878903121561534957600080fd5b8635615354816151e9565b95506020870135615364816151e9565b94506040870135615374816151e9565b93506060870135615384816151e9565b9250608087013567ffffffffffffffff808211156153a157600080fd5b6153ad8a838b016152c7565b935060a08901359150808211156153c357600080fd5b506153d089828a016152c7565b9150509295509295509295565b600080604083850312156153f057600080fd5b82359150602083013561540281615160565b809150509250929050565b6000806040838503121561542057600080fd5b823561542b816151e9565b9150602083013561540281615160565b6000806040838503121561544e57600080fd5b823561545981615160565b91506020830135615402816151e9565b801515811461150257600080fd5b6000806040838503121561548a57600080fd5b823561521c81615469565b6000602082840312156154a757600080fd5b81356146c2816151e9565b600080600080600060a086880312156154ca57600080fd5b8535945060208601356154dc816151e9565b9350604086013567ffffffffffffffff808211156154f957600080fd5b61550589838a016152c7565b9450606088013591508082111561551b57600080fd5b50615528888289016152c7565b9250506080860135615539816151e9565b809150509295509295909350565b6020808252601f908201527f5265656e7472616e637947756172643a207265656e7472616e742063616c6c00604082015260600190565b634e487b7160e01b600052603260045260246000fd5b634e487b7160e01b600052601160045260246000fd5b60006000198214156155be576155be615594565b5060010190565b6020808252818101527f4f776e61626c653a2063616c6c6572206973206e6f7420746865206f776e6572604082015260600190565b60006020828403121561560c57600080fd5b81516146c2816151e9565b60006020828403121561562957600080fd5b5051919050565b6020808252601a908201527f496e73756666696369656e742072657761726420746f6b656e73000000000000604082015260600190565b60008282101561567957615679615594565b500390565b60006020828403121561569057600080fd5b81516146c281615160565b600181815b808511156156d65781600019048211156156bc576156bc615594565b808516156156c957918102915b93841c93908002906156a0565b509250929050565b6000826156ed57506001612cc7565b816156fa57506000612cc7565b8160018114615710576002811461571a57615736565b6001915050612cc7565b60ff84111561572b5761572b615594565b50506001821b612cc7565b5060208310610133831016604e8410600b8410161715615759575081810a612cc7565b615763838361569b565b806000190482111561577757615777615594565b029392505050565b60006146c283836156de565b60008160001904831182151516156157a5576157a5615594565b500290565b600081518084526020808501945080840160005b838110156157e35781516001600160a01b0316875295820195908201906001016157be565b509495945050505050565b858152600060018060a01b03808716602084015260a0604084015261581660a08401876157aa565b838103606085015261582881876157aa565b9250508084166080840152509695505050505050565b60008261585b57634e487b7160e01b600052601260045260246000fd5b500490565b6000821982111561587357615873615594565b500190565b828152604060208201526000614f7d60408301846157aa565b600060208083850312156158a457600080fd5b825167ffffffffffffffff8111156158bb57600080fd5b8301601f810185136158cc57600080fd5b80516158da6152e8826152a3565b81815260059190911b820183019083810190878311156158f957600080fd5b928401925b828410156150a2578351825292840192908401906158fe565b85815284602082015260a06040820152600061593660a08301866157aa565b6001600160a01b0394909416606083015250608001529392505050565b60006020828403121561596557600080fd5b81516146c281615469565b60005b8381101561598b578181015183820152602001615973565b83811115614a285750506000910152565b600082516159ae818460208701615970565b9190910192915050565b60208152600082518060208401526159d7816040850160208701615970565b601f01601f1916919091016040019291505056fe90890809c654f11d6e72a28fa60149770a0d11ec6c92319d6ceb2bb0a4ea1a15a2646970667358221220f6dd7a02626f4d42646112f8655ab84e7696e3fd74e884d8a83d958d2c9c54c564736f6c634300080b0033",
  "linkReferences": {},
  "deployedLinkReferences": {}
}