{
  "_format": "hh-sol-artifact-1",
  "contractName": "SSNoLockup",
  "sourceName": "contracts/SSNoLockup.sol",
  "abi": [
    {
      "inputs": [],
      "stateMutability": "nonpayable",
      "type": "constructor"
    },
    {
      "anonymous": false,
      "inputs": [
        {
          "indexed": false,
          "internalType": "address",
          "name": "tokenRecovered",
          "type": "address"
        },
        {
          "indexed": false,
          "internalType": "uint256",
          "name": "amount",
          "type": "uint256"
        }
      ],
      "name": "AdminTokenRecovered",
      "type": "event"
    },
    {
      "anonymous": false,
      "inputs": [
        {
          "indexed": true,
          "internalType": "address",
          "name": "user",
          "type": "address"
        },
        {
          "indexed": false,
          "internalType": "uint256",
          "name": "amount",
          "type": "uint256"
        }
      ],
      "name": "Deposit",
      "type": "event"
    },
    {
      "anonymous": false,
      "inputs": [
        {
          "indexed": false,
          "internalType": "uint256",
          "name": "_duration",
          "type": "uint256"
        }
      ],
      "name": "DurationUpdated",
      "type": "event"
    },
    {
      "anonymous": false,
      "inputs": [
        {
          "indexed": true,
          "internalType": "address",
          "name": "user",
          "type": "address"
        },
        {
          "indexed": false,
          "internalType": "uint256",
          "name": "amount",
          "type": "uint256"
        }
      ],
      "name": "EmergencyWithdraw",
      "type": "event"
    },
    {
      "anonymous": false,
      "inputs": [
        {
          "indexed": false,
          "internalType": "uint256",
          "name": "rewardPerBlock",
          "type": "uint256"
        }
      ],
      "name": "NewRewardPerBlock",
      "type": "event"
    },
    {
      "anonymous": false,
      "inputs": [
        {
          "indexed": false,
          "internalType": "uint256",
          "name": "startBlock",
          "type": "uint256"
        },
        {
          "indexed": false,
          "internalType": "uint256",
          "name": "endBlock",
          "type": "uint256"
        }
      ],
      "name": "NewStartAndEndBlocks",
      "type": "event"
    },
    {
      "anonymous": false,
      "inputs": [
        {
          "indexed": true,
          "internalType": "address",
          "name": "previousOwner",
          "type": "address"
        },
        {
          "indexed": true,
          "internalType": "address",
          "name": "newOwner",
          "type": "address"
        }
      ],
      "name": "OwnershipTransferred",
      "type": "event"
    },
    {
      "anonymous": false,
      "inputs": [
        {
          "indexed": false,
          "internalType": "uint256",
          "name": "blockNumber",
          "type": "uint256"
        }
      ],
      "name": "RewardsStop",
      "type": "event"
    },
    {
      "anonymous": false,
      "inputs": [
        {
          "indexed": false,
          "internalType": "address",
          "name": "_addr",
          "type": "address"
        },
        {
          "indexed": false,
          "internalType": "uint256",
          "name": "_fee",
          "type": "uint256"
        }
      ],
      "name": "ServiceInfoUpadted",
      "type": "event"
    },
    {
      "anonymous": false,
      "inputs": [
        {
          "indexed": false,
          "internalType": "uint256",
          "name": "_depositFee",
          "type": "uint256"
        },
        {
          "indexed": false,
          "internalType": "uint256",
          "name": "_withdrawFee",
          "type": "uint256"
        },
        {
          "indexed": false,
          "internalType": "uint256",
          "name": "_slippageFactor",
          "type": "uint256"
        },
        {
          "indexed": false,
          "internalType": "address",
          "name": "_uniRouter",
          "type": "address"
        },
        {
          "indexed": false,
          "internalType": "address[]",
          "name": "_path0",
          "type": "address[]"
        },
        {
          "indexed": false,
          "internalType": "address[]",
          "name": "_path1",
          "type": "address[]"
        }
      ],
      "name": "SetSettings",
      "type": "event"
    },
    {
      "anonymous": false,
      "inputs": [
        {
          "indexed": false,
          "internalType": "uint256",
          "name": "poolLimitPerUser",
          "type": "uint256"
        },
        {
          "indexed": false,
          "internalType": "bool",
          "name": "hasLimit",
          "type": "bool"
        }
      ],
      "name": "UpdatePoolLimit",
      "type": "event"
    },
    {
      "anonymous": false,
      "inputs": [
        {
          "indexed": false,
          "internalType": "address",
          "name": "_addr",
          "type": "address"
        }
      ],
      "name": "WalletAUpdated",
      "type": "event"
    },
    {
      "anonymous": false,
      "inputs": [
        {
          "indexed": true,
          "internalType": "address",
          "name": "user",
          "type": "address"
        },
        {
          "indexed": false,
          "internalType": "uint256",
          "name": "amount",
          "type": "uint256"
        }
      ],
      "name": "Withdraw",
      "type": "event"
    },
    {
      "inputs": [],
      "name": "MAX_FEE",
      "outputs": [
        {
          "internalType": "uint256",
          "name": "",
          "type": "uint256"
        }
      ],
      "stateMutability": "view",
      "type": "function"
    },
    {
      "inputs": [],
      "name": "PRECISION_FACTOR",
      "outputs": [
        {
          "internalType": "uint256",
          "name": "",
          "type": "uint256"
        }
      ],
      "stateMutability": "view",
      "type": "function"
    },
    {
      "inputs": [],
      "name": "PRECISION_FACTOR_REFLECTION",
      "outputs": [
        {
          "internalType": "uint256",
          "name": "",
          "type": "uint256"
        }
      ],
      "stateMutability": "view",
      "type": "function"
    },
    {
      "inputs": [],
      "name": "accDividendPerShare",
      "outputs": [
        {
          "internalType": "uint256",
          "name": "",
          "type": "uint256"
        }
      ],
      "stateMutability": "view",
      "type": "function"
    },
    {
      "inputs": [],
      "name": "accTokenPerShare",
      "outputs": [
        {
          "internalType": "uint256",
          "name": "",
          "type": "uint256"
        }
      ],
      "stateMutability": "view",
      "type": "function"
    },
    {
      "inputs": [],
      "name": "availableDividendTokens",
      "outputs": [
        {
          "internalType": "uint256",
          "name": "",
          "type": "uint256"
        }
      ],
      "stateMutability": "view",
      "type": "function"
    },
    {
      "inputs": [],
      "name": "availableRewardTokens",
      "outputs": [
        {
          "internalType": "uint256",
          "name": "",
          "type": "uint256"
        }
      ],
      "stateMutability": "view",
      "type": "function"
    },
    {
      "inputs": [],
      "name": "bonusEndBlock",
      "outputs": [
        {
          "internalType": "uint256",
          "name": "",
          "type": "uint256"
        }
      ],
      "stateMutability": "view",
      "type": "function"
    },
    {
      "inputs": [],
      "name": "buyBackWallet",
      "outputs": [
        {
          "internalType": "address",
          "name": "",
          "type": "address"
        }
      ],
      "stateMutability": "view",
      "type": "function"
    },
    {
      "inputs": [],
      "name": "claimDividend",
      "outputs": [],
      "stateMutability": "payable",
      "type": "function"
    },
    {
      "inputs": [],
      "name": "claimReward",
      "outputs": [],
      "stateMutability": "payable",
      "type": "function"
    },
    {
      "inputs": [],
      "name": "compoundDividend",
      "outputs": [],
      "stateMutability": "payable",
      "type": "function"
    },
    {
      "inputs": [],
      "name": "compoundReward",
      "outputs": [],
      "stateMutability": "payable",
      "type": "function"
    },
    {
      "inputs": [
        {
          "internalType": "uint256",
          "name": "_amount",
          "type": "uint256"
        }
      ],
      "name": "deposit",
      "outputs": [],
      "stateMutability": "nonpayable",
      "type": "function"
    },
    {
      "inputs": [],
      "name": "depositFee",
      "outputs": [
        {
          "internalType": "uint256",
          "name": "",
          "type": "uint256"
        }
      ],
      "stateMutability": "view",
      "type": "function"
    },
    {
      "inputs": [
        {
          "internalType": "uint256",
          "name": "_amount",
          "type": "uint256"
        }
      ],
      "name": "depositRewards",
      "outputs": [],
      "stateMutability": "nonpayable",
      "type": "function"
    },
    {
      "inputs": [],
      "name": "dividendToken",
      "outputs": [
        {
          "internalType": "address",
          "name": "",
          "type": "address"
        }
      ],
      "stateMutability": "view",
      "type": "function"
    },
    {
      "inputs": [],
      "name": "duration",
      "outputs": [
        {
          "internalType": "uint256",
          "name": "",
          "type": "uint256"
        }
      ],
      "stateMutability": "view",
      "type": "function"
    },
    {
      "inputs": [
        {
          "internalType": "uint256",
          "name": "",
          "type": "uint256"
        }
      ],
      "name": "earnedToStakedPath",
      "outputs": [
        {
          "internalType": "address",
          "name": "",
          "type": "address"
        }
      ],
      "stateMutability": "view",
      "type": "function"
    },
    {
      "inputs": [],
      "name": "earnedToken",
      "outputs": [
        {
          "internalType": "contract IERC20",
          "name": "",
          "type": "address"
        }
      ],
      "stateMutability": "view",
      "type": "function"
    },
    {
      "inputs": [
        {
          "internalType": "uint256",
          "name": "_amount",
          "type": "uint256"
        }
      ],
      "name": "emergencyRewardWithdraw",
      "outputs": [],
      "stateMutability": "nonpayable",
      "type": "function"
    },
    {
      "inputs": [],
      "name": "emergencyWithdraw",
      "outputs": [],
      "stateMutability": "nonpayable",
      "type": "function"
    },
    {
      "inputs": [],
      "name": "harvest",
      "outputs": [],
      "stateMutability": "nonpayable",
      "type": "function"
    },
    {
      "inputs": [],
      "name": "hasDividend",
      "outputs": [
        {
          "internalType": "bool",
          "name": "",
          "type": "bool"
        }
      ],
      "stateMutability": "view",
      "type": "function"
    },
    {
      "inputs": [],
      "name": "hasUserLimit",
      "outputs": [
        {
          "internalType": "bool",
          "name": "",
          "type": "bool"
        }
      ],
      "stateMutability": "view",
      "type": "function"
    },
    {
      "inputs": [
        {
          "internalType": "address",
          "name": "_stakingToken",
          "type": "address"
        },
        {
          "internalType": "address",
          "name": "_earnedToken",
          "type": "address"
        },
        {
          "internalType": "address",
          "name": "_dividendToken",
          "type": "address"
        },
        {
          "internalType": "uint256",
          "name": "_rewardPerBlock",
          "type": "uint256"
        },
        {
          "internalType": "uint256",
          "name": "_depositFee",
          "type": "uint256"
        },
        {
          "internalType": "uint256",
          "name": "_withdrawFee",
          "type": "uint256"
        },
        {
          "internalType": "address",
          "name": "_uniRouter",
          "type": "address"
        },
        {
          "internalType": "address[]",
          "name": "_earnedToStakedPath",
          "type": "address[]"
        },
        {
          "internalType": "address[]",
          "name": "_reflectionToStakedPath",
          "type": "address[]"
        },
        {
          "internalType": "bool",
          "name": "_hasDividend",
          "type": "bool"
        }
      ],
      "name": "initialize",
      "outputs": [],
      "stateMutability": "nonpayable",
      "type": "function"
    },
    {
      "inputs": [],
      "name": "isInitialized",
      "outputs": [
        {
          "internalType": "bool",
          "name": "",
          "type": "bool"
        }
      ],
      "stateMutability": "view",
      "type": "function"
    },
    {
      "inputs": [],
      "name": "lastRewardBlock",
      "outputs": [
        {
          "internalType": "uint256",
          "name": "",
          "type": "uint256"
        }
      ],
      "stateMutability": "view",
      "type": "function"
    },
    {
      "inputs": [],
      "name": "owner",
      "outputs": [
        {
          "internalType": "address",
          "name": "",
          "type": "address"
        }
      ],
      "stateMutability": "view",
      "type": "function"
    },
    {
      "inputs": [
        {
          "internalType": "address",
          "name": "_user",
          "type": "address"
        }
      ],
      "name": "pendingDividends",
      "outputs": [
        {
          "internalType": "uint256",
          "name": "",
          "type": "uint256"
        }
      ],
      "stateMutability": "view",
      "type": "function"
    },
    {
      "inputs": [
        {
          "internalType": "address",
          "name": "_user",
          "type": "address"
        }
      ],
      "name": "pendingReward",
      "outputs": [
        {
          "internalType": "uint256",
          "name": "",
          "type": "uint256"
        }
      ],
      "stateMutability": "view",
      "type": "function"
    },
    {
      "inputs": [],
      "name": "performanceFee",
      "outputs": [
        {
          "internalType": "uint256",
          "name": "",
          "type": "uint256"
        }
      ],
      "stateMutability": "view",
      "type": "function"
    },
    {
      "inputs": [],
      "name": "poolLimitPerUser",
      "outputs": [
        {
          "internalType": "uint256",
          "name": "",
          "type": "uint256"
        }
      ],
      "stateMutability": "view",
      "type": "function"
    },
    {
      "inputs": [
        {
          "internalType": "address",
          "name": "_tokenAddress",
          "type": "address"
        },
        {
          "internalType": "uint256",
          "name": "_tokenAmount",
          "type": "uint256"
        }
      ],
      "name": "recoverWrongTokens",
      "outputs": [],
      "stateMutability": "nonpayable",
      "type": "function"
    },
    {
      "inputs": [
        {
          "internalType": "uint256",
          "name": "",
          "type": "uint256"
        }
      ],
      "name": "reflectionToStakedPath",
      "outputs": [
        {
          "internalType": "address",
          "name": "",
          "type": "address"
        }
      ],
      "stateMutability": "view",
      "type": "function"
    },
    {
      "inputs": [],
      "name": "renounceOwnership",
      "outputs": [],
      "stateMutability": "nonpayable",
      "type": "function"
    },
    {
      "inputs": [],
      "name": "rewardPerBlock",
      "outputs": [
        {
          "internalType": "uint256",
          "name": "",
          "type": "uint256"
        }
      ],
      "stateMutability": "view",
      "type": "function"
    },
    {
      "inputs": [],
      "name": "rewardState",
      "outputs": [
        {
          "internalType": "bool",
          "name": "",
          "type": "bool"
        }
      ],
      "stateMutability": "view",
      "type": "function"
    },
    {
      "inputs": [
        {
          "internalType": "uint256",
          "name": "_duration",
          "type": "uint256"
        }
      ],
      "name": "setDuration",
      "outputs": [],
      "stateMutability": "nonpayable",
      "type": "function"
    },
    {
      "inputs": [
        {
          "internalType": "address",
          "name": "_buyBackWallet",
          "type": "address"
        },
        {
          "internalType": "uint256",
          "name": "_fee",
          "type": "uint256"
        }
      ],
      "name": "setServiceInfo",
      "outputs": [],
      "stateMutability": "nonpayable",
      "type": "function"
    },
    {
      "inputs": [
        {
          "internalType": "uint256",
          "name": "_depositFee",
          "type": "uint256"
        },
        {
          "internalType": "uint256",
          "name": "_withdrawFee",
          "type": "uint256"
        },
        {
          "internalType": "uint256",
          "name": "_slippageFactor",
          "type": "uint256"
        },
        {
          "internalType": "address",
          "name": "_uniRouter",
          "type": "address"
        },
        {
          "internalType": "address[]",
          "name": "_earnedToStakedPath",
          "type": "address[]"
        },
        {
          "internalType": "address[]",
          "name": "_reflectionToStakedPath",
          "type": "address[]"
        }
      ],
      "name": "setSettings",
      "outputs": [],
      "stateMutability": "nonpayable",
      "type": "function"
    },
    {
      "inputs": [],
      "name": "slippageFactor",
      "outputs": [
        {
          "internalType": "uint256",
          "name": "",
          "type": "uint256"
        }
      ],
      "stateMutability": "view",
      "type": "function"
    },
    {
      "inputs": [],
      "name": "slippageFactorUL",
      "outputs": [
        {
          "internalType": "uint256",
          "name": "",
          "type": "uint256"
        }
      ],
      "stateMutability": "view",
      "type": "function"
    },
    {
      "inputs": [],
      "name": "stakingToken",
      "outputs": [
        {
          "internalType": "contract IERC20",
          "name": "",
          "type": "address"
        }
      ],
      "stateMutability": "view",
      "type": "function"
    },
    {
      "inputs": [],
      "name": "startBlock",
      "outputs": [
        {
          "internalType": "uint256",
          "name": "",
          "type": "uint256"
        }
      ],
      "stateMutability": "view",
      "type": "function"
    },
    {
      "inputs": [],
      "name": "startReward",
      "outputs": [],
      "stateMutability": "nonpayable",
      "type": "function"
    },
    {
      "inputs": [],
      "name": "stopReward",
      "outputs": [],
      "stateMutability": "nonpayable",
      "type": "function"
    },
    {
      "inputs": [],
      "name": "totalStaked",
      "outputs": [
        {
          "internalType": "uint256",
          "name": "",
          "type": "uint256"
        }
      ],
      "stateMutability": "view",
      "type": "function"
    },
    {
      "inputs": [
        {
          "internalType": "address",
          "name": "newOwner",
          "type": "address"
        }
      ],
      "name": "transferOwnership",
      "outputs": [],
      "stateMutability": "nonpayable",
      "type": "function"
    },
    {
      "inputs": [],
      "name": "uniRouterAddress",
      "outputs": [
        {
          "internalType": "address",
          "name": "",
          "type": "address"
        }
      ],
      "stateMutability": "view",
      "type": "function"
    },
    {
      "inputs": [
        {
          "internalType": "bool",
          "name": "_hasUserLimit",
          "type": "bool"
        },
        {
          "internalType": "uint256",
          "name": "_poolLimitPerUser",
          "type": "uint256"
        }
      ],
      "name": "updatePoolLimitPerUser",
      "outputs": [],
      "stateMutability": "nonpayable",
      "type": "function"
    },
    {
      "inputs": [
        {
          "internalType": "uint256",
          "name": "_rewardPerBlock",
          "type": "uint256"
        }
      ],
      "name": "updateRewardPerBlock",
      "outputs": [],
      "stateMutability": "nonpayable",
      "type": "function"
    },
    {
      "inputs": [
        {
          "internalType": "address",
          "name": "_walletA",
          "type": "address"
        }
      ],
      "name": "updateWalletA",
      "outputs": [],
      "stateMutability": "nonpayable",
      "type": "function"
    },
    {
      "inputs": [
        {
          "internalType": "address",
          "name": "",
          "type": "address"
        }
      ],
      "name": "userInfo",
      "outputs": [
        {
          "internalType": "uint256",
          "name": "amount",
          "type": "uint256"
        },
        {
          "internalType": "uint256",
          "name": "rewardDebt",
          "type": "uint256"
        },
        {
          "internalType": "uint256",
          "name": "reflectionDebt",
          "type": "uint256"
        }
      ],
      "stateMutability": "view",
      "type": "function"
    },
    {
      "inputs": [],
      "name": "walletA",
      "outputs": [
        {
          "internalType": "address",
          "name": "",
          "type": "address"
        }
      ],
      "stateMutability": "view",
      "type": "function"
    },
    {
      "inputs": [
        {
          "internalType": "uint256",
          "name": "_amount",
          "type": "uint256"
        }
      ],
      "name": "withdraw",
      "outputs": [],
      "stateMutability": "nonpayable",
      "type": "function"
    },
    {
      "inputs": [],
      "name": "withdrawFee",
      "outputs": [
        {
          "internalType": "uint256",
          "name": "",
          "type": "uint256"
        }
      ],
      "stateMutability": "view",
      "type": "function"
    },
    {
      "stateMutability": "payable",
      "type": "receive"
    }
  ],
  "bytecode": "0x608060405261016d6003556103b6600a55601180546001600160a01b0319167311f92bbcb91208566edf221bc440c2700c5b1ef71790556601c6bf526340006012553480156200004e57600080fd5b506200005a3362000064565b60018055620000b4565b600080546001600160a01b038381166001600160a01b0319831681178455604051919092169283917f8be0079c531659141344cd1fd0a4f28419497f9722a3daafe3b4186f6b6457e09190a35050565b6142ee80620000c46000396000f3fe60806040526004361061037a5760003560e01c806387788782116101d1578063b74cd24211610102578063d5f0ca94116100a0578063f2fde38b1161006f578063f2fde38b14610935578063f40f0f5214610955578063f6be71d114610975578063ffbd3b1f1461099557600080fd5b8063d5f0ca94146108e2578063db2e21bc14610902578063e941fa7814610917578063f0fc6bca1461092d57600080fd5b8063bc063e1a116100dc578063bc063e1a14610876578063c1e22a651461088c578063c7926458146108ac578063ccd34cd5146108cc57600080fd5b8063b74cd24214610838578063b77e7da01461084e578063b88a802f1461086e57600080fd5b806392e8990e1161016f578063a5bfd0f211610149578063a5bfd0f2146107c1578063a9f8d181146107e2578063b1722d9e146107f8578063b6b55f251461081857600080fd5b806392e8990e146107725780639f94e2721461078c578063a0b40905146107a157600080fd5b80638bdf67f2116101ab5780638bdf67f2146107085780638da5cb5b146107285780638f6629151461074657806392b46e5b1461075c57600080fd5b806387788782146106c657806388bbb0c1146106dc5780638ae39cac146106f257600080fd5b8063582c7928116102ab578063715018a6116102495780637972271b116102235780637972271b1461065b57806380dc06721461067b578063817b1cd21461069057806381b61948146106a657600080fd5b8063715018a61461061157806372f702f314610626578063746c8ae11461064657600080fd5b806367a527931161028557806367a52793146105b3578063693a090b146105c95780636d971a10146105e95780636e707b73146105f157600080fd5b8063582c7928146105735780635dde4a911461058857806366fe9f8a1461059d57600080fd5b80632e1a7d4d116103185780633f138d4b116102f25780633f138d4b146105205780634641257d1461054057806348cd4cb1146105555780634de8ff211461056b57600080fd5b80632e1a7d4d146104b65780633279beab146104d6578063392e53cd146104f657600080fd5b8063167d2dbe11610354578063167d2dbe146104095780631959a002146104295780631aed6553146104805780631cd348c01461049657600080fd5b806301f8a976146103865780630fb5a6b4146103a85780631582358e146103d157600080fd5b3661038157005b600080fd5b34801561039257600080fd5b506103a66103a1366004613af0565b6109ab565b005b3480156103b457600080fd5b506103be60035481565b6040519081526020015b60405180910390f35b3480156103dd57600080fd5b506017546103f1906001600160a01b031681565b6040516001600160a01b0390911681526020016103c8565b34801561041557600080fd5b506103f1610424366004613af0565b610a1a565b34801561043557600080fd5b50610465610444366004613b29565b601e6020526000908152604090208054600182015460029092015490919083565b604080519384526020840192909252908201526060016103c8565b34801561048c57600080fd5b506103be60075481565b3480156104a257600080fd5b506011546103f1906001600160a01b031681565b3480156104c257600080fd5b506103a66104d1366004613af0565b610a44565b3480156104e257600080fd5b506103a66104f1366004613af0565b610d9c565b34801561050257600080fd5b506002546105109060ff1681565b60405190151581526020016103c8565b34801561052c57600080fd5b506103a661053b366004613b46565b610e86565b34801561054c57600080fd5b506103a661107e565b34801561056157600080fd5b506103be60065481565b6103a6611201565b34801561057f57600080fd5b50610510611615565b34801561059457600080fd5b506103be61162e565b3480156105a957600080fd5b506103be60055481565b3480156105bf57600080fd5b506103be600e5481565b3480156105d557600080fd5b50600b546103f1906001600160a01b031681565b6103a6611731565b3480156105fd57600080fd5b506016546103f1906001600160a01b031681565b34801561061d57600080fd5b506103a6611a54565b34801561063257600080fd5b506015546103f1906001600160a01b031681565b34801561065257600080fd5b506103a6611a8a565b34801561066757600080fd5b506103a6610676366004613b29565b611b7b565b34801561068757600080fd5b506103a6611c56565b34801561069c57600080fd5b506103be601a5481565b3480156106b257600080fd5b506103a66106c1366004613b46565b611cb6565b3480156106d257600080fd5b506103be60125481565b3480156106e857600080fd5b506103be60145481565b3480156106fe57600080fd5b506103be60085481565b34801561071457600080fd5b506103a6610723366004613af0565b611e07565b34801561073457600080fd5b506000546001600160a01b03166103f1565b34801561075257600080fd5b506103be60185481565b34801561076857600080fd5b506103be60195481565b34801561077e57600080fd5b506004546105109060ff1681565b34801561079857600080fd5b506103be611fb3565b3480156107ad57600080fd5b506103a66107bc366004613b8b565b612084565b3480156107cd57600080fd5b5060175461051090600160a01b900460ff1681565b3480156107ee57600080fd5b506103be60095481565b34801561080457600080fd5b506103a6610813366004613c88565b612164565b34801561082457600080fd5b506103a6610833366004613af0565b612500565b34801561084457600080fd5b506103be6103e381565b34801561085a57600080fd5b506010546103f1906001600160a01b031681565b6103a6612983565b34801561088257600080fd5b506103be6107d081565b34801561089857600080fd5b506103f16108a7366004613af0565b612a83565b3480156108b857600080fd5b506103be6108c7366004613b29565b612a93565b3480156108d857600080fd5b506103be60135481565b3480156108ee57600080fd5b506103a66108fd366004613d5e565b612bd0565b34801561090e57600080fd5b506103a6612d76565b34801561092357600080fd5b506103be600f5481565b6103a6612e2c565b34801561094157600080fd5b506103a6610950366004613b29565b612f83565b34801561096157600080fd5b506103be610970366004613b29565b61301b565b34801561098157600080fd5b506103a6610990366004613af0565b6130db565b3480156109a157600080fd5b506103be600a5481565b6000546001600160a01b031633146109de5760405162461bcd60e51b81526004016109d590613df0565b60405180910390fd5b60088190556040518181527f0c4d677eef92893ac7ec52faf8140fc6c851ab4736302b4f3a89dfb20696a0df906020015b60405180910390a150565b600c8181548110610a2a57600080fd5b6000918252602090912001546001600160a01b0316905081565b60026001541415610a675760405162461bcd60e51b81526004016109d590613e25565b600260015580610ab95760405162461bcd60e51b815260206004820152601f60248201527f416d6f756e742073686f756c642062652067726561746f72207468616e20300060448201526064016109d5565b336000908152601e602052604090208054821115610b195760405162461bcd60e51b815260206004820152601b60248201527f416d6f756e7420746f20776974686472617720746f6f2068696768000000000060448201526064016109d5565b610b216131eb565b805415610c8357600081600101546013546018548460000154610b449190613e72565b610b4e9190613e91565b610b589190613eb3565b90508015610bc45780610b69611fb3565b1015610b875760405162461bcd60e51b81526004016109d590613eca565b601654610b9e906001600160a01b03163383613365565b80601b541115610bbe5780601b54610bb69190613eb3565b601b55610bc4565b6000601b555b600082600201546014546019548560000154610be09190613e72565b610bea9190613e91565b610bf49190613eb3565b9050600081118015610c0f5750601754600160a01b900460ff165b15610c80576017546001600160a01b0316610c5757604051339082156108fc029083906000818181858888f19350505050158015610c51573d6000803e3d6000fd5b50610c6e565b601754610c6e906001600160a01b03163383613365565b80601c54610c7c9190613eb3565b601c555b50505b80548290811115610c92575080545b8154610c9f908290613eb3565b8255601a54610caf908290613eb3565b601a55600f5415610d05576000612710600f5483610ccd9190613e72565b610cd79190613e91565b601054601554919250610cf7916001600160a01b03908116911683613365565b610d018183613eb3565b9150505b601554610d1c906001600160a01b03163383613365565b6013546018548354610d2e9190613e72565b610d389190613e91565b60018301556014546019548354610d4f9190613e72565b610d599190613e91565b600283015560405183815233907f884edad9ce6fa2440d8a54cc123490eb96d2768479d49ff9c7366125a94243649060200160405180910390a250506001805550565b6000546001600160a01b03163314610dc65760405162461bcd60e51b81526004016109d590613df0565b6007544311610e095760405162461bcd60e51b815260206004820152600f60248201526e506f6f6c2069732072756e6e696e6760881b60448201526064016109d5565b80610e12611fb3565b1015610e305760405162461bcd60e51b81526004016109d590613eca565b80610e4057610e3d611fb3565b90505b601654610e57906001600160a01b03163383613365565b601b5415610e8357601b54811115610e71576000601b5550565b80601b54610e7f9190613eb3565b601b555b50565b6000546001600160a01b03163314610eb05760405162461bcd60e51b81526004016109d590613df0565b6016546001600160a01b0383811691161415610f075760405162461bcd60e51b815260206004820152601660248201527521b0b73737ba103132903932bbb0b932103a37b5b2b760511b60448201526064016109d5565b6015546001600160a01b0383811691161415610fe2576015546040516370a0823160e01b81523060048201526000916001600160a01b0316906370a0823190602401602060405180830381865afa158015610f66573d6000803e3d6000fd5b505050506040513d601f19601f82011682018060405250810190610f8a9190613f01565b9050601a5481610f9a9190613eb3565b821115610fe05760405162461bcd60e51b8152602060048201526014602482015273496e73756666696369656e742062616c616e636560601b60448201526064016109d5565b505b6001600160a01b03821661102357604051339082156108fc029083906000818181858888f1935050505015801561101d573d6000803e3d6000fd5b50611037565b6110376001600160a01b0383163383613365565b604080516001600160a01b0384168152602081018390527f74f5dcd55c394cb1c6d3b9da22c2464bcc46c38cc3865bd629ed75823249b40b91015b60405180910390a15050565b6000546001600160a01b031633146110a85760405162461bcd60e51b81526004016109d590613df0565b6110b06131eb565b6015546040516370a0823160e01b81523060048201526000916001600160a01b0316906370a0823190602401602060405180830381865afa1580156110f9573d6000803e3d6000fd5b505050506040513d601f19601f8201168201806040525081019061111d9190613f01565b9050601a548161112d9190613eb3565b90506000601d54601454601954846111459190613e72565b61114f9190613e91565b6111599190613eb3565b905080156111e0576017546001600160a01b03166111b1576010546040516001600160a01b039091169082156108fc029083906000818181858888f193505050501580156111ab573d6000803e3d6000fd5b506111ce565b6010546017546111ce916001600160a01b03918216911683613365565b80601c546111dc9190613eb3565b601c555b6014546019546111f09084613e72565b6111fa9190613e91565b601d555050565b600260015414156112245760405162461bcd60e51b81526004016109d590613e25565b60026001908155601754600160a01b900460ff161515146112785760405162461bcd60e51b815260206004820152600e60248201526d4e6f207265666c656374696f6e7360901b60448201526064016109d5565b336000908152601e6020526040902061128f6133cd565b6112976131eb565b80546112a3575061160f565b6000816002015460145460195484600001546112bf9190613e72565b6112c99190613e91565b6112d39190613eb3565b905080156115e85780601c546112e99190613eb3565b601c556017546015546001600160a01b0390811691161461152c576017546001600160a01b03166113da57600b54604080516315ab88c960e31b815290516000926001600160a01b03169163ad5c46489160048083019260209291908290030181865afa15801561135e573d6000803e3d6000fd5b505050506040513d601f19601f820116820180604052508101906113829190613f1a565b9050806001600160a01b031663d0e30db0836040518263ffffffff1660e01b81526004016000604051808303818588803b1580156113bf57600080fd5b505af11580156113d3573d6000803e3d6000fd5b5050505050505b6015546040516370a0823160e01b81523060048201526000916001600160a01b0316906370a0823190602401602060405180830381865afa158015611423573d6000803e3d6000fd5b505050506040513d601f19601f820116820180604052508101906114479190613f01565b90506114ae82600c8054806020026020016040519081016040528092919081815260200182805480156114a357602002820191906000526020600020905b81546001600160a01b03168152600190910190602001808311611485575b5050505050306134b5565b6015546040516370a0823160e01b81523060048201526000916001600160a01b0316906370a0823190602401602060405180830381865afa1580156114f7573d6000803e3d6000fd5b505050506040513d601f19601f8201168201806040525081019061151b9190613f01565b90506115278282613eb3565b925050505b60045460ff16156115645760055482546115469083613f37565b11156115645760405162461bcd60e51b81526004016109d590613f4f565b80601a546115729190613f37565b601a558154611582908290613f37565b82556013546018546115949083613e72565b61159e9190613e91565b82600101546115ad9190613f37565b600183015560405181815233907fe1fffcc4923d04b559f4d29a8bfc6cda04eb5b0d3c460751c2402c5c5cc9109c9060200160405180910390a25b60145460195483546115fa9190613e72565b6116049190613e91565b826002018190555050505b60018055565b600080600654118015611629575043600654105b905090565b6017546000906001600160a01b031661164657504790565b6017546040516370a0823160e01b81523060048201526000916001600160a01b0316906370a0823190602401602060405180830381865afa15801561168f573d6000803e3d6000fd5b505050506040513d601f19601f820116820180604052508101906116b39190613f01565b6016546017549192506001600160a01b03918216911614156116f157601b548110156116e157600091505090565b601b546116ee9082613eb3565b90505b6015546017546001600160a01b039081169116141561172c57601a5481101561171c57600091505090565b601a546117299082613eb3565b90505b919050565b600260015414156117545760405162461bcd60e51b81526004016109d590613e25565b6002600155336000908152601e602052604090206117706133cd565b6117786131eb565b8054611784575061160f565b6000816001015460135460185484600001546117a09190613e72565b6117aa9190613e91565b6117b49190613eb3565b90508015611a2d57806117c5611fb3565b10156117e35760405162461bcd60e51b81526004016109d590613eca565b80601b5411156118035780601b546117fb9190613eb3565b601b55611809565b6000601b555b6016546015546001600160a01b03908116911614611971576015546040516370a0823160e01b81523060048201526000916001600160a01b0316906370a0823190602401602060405180830381865afa15801561186a573d6000803e3d6000fd5b505050506040513d601f19601f8201168201806040525081019061188e9190613f01565b90506118f382600d8054806020026020016040519081016040528092919081815260200182805480156114a3576020028201919060005260206000209081546001600160a01b03168152600190910190602001808311611485575050505050306134b5565b6015546040516370a0823160e01b81523060048201526000916001600160a01b0316906370a0823190602401602060405180830381865afa15801561193c573d6000803e3d6000fd5b505050506040513d601f19601f820116820180604052508101906119609190613f01565b905061196c8282613eb3565b925050505b60045460ff16156119a957600554825461198b9083613f37565b11156119a95760405162461bcd60e51b81526004016109d590613f4f565b80601a546119b79190613f37565b601a5581546119c7908290613f37565b82556014546019546119d99083613e72565b6119e39190613e91565b82600201546119f29190613f37565b600283015560405181815233907fe1fffcc4923d04b559f4d29a8bfc6cda04eb5b0d3c460751c2402c5c5cc9109c9060200160405180910390a25b6013546018548354611a3f9190613e72565b611a499190613e91565b600192830155508055565b6000546001600160a01b03163314611a7e5760405162461bcd60e51b81526004016109d590613df0565b611a886000613656565b565b6000546001600160a01b03163314611ab45760405162461bcd60e51b81526004016109d590613df0565b60065415611b045760405162461bcd60e51b815260206004820152601860248201527f506f6f6c2077617320616c72656164792073746172746564000000000000000060448201526064016109d5565b611b0f436064613f37565b600655600354611b2190617080613e72565b600654611b2e9190613f37565b600781905560065460098190556040517f7cd0ab87d19036f3dfadadb232c78aa4879dda3f0c994a9d637532410ee2ce0692611b71928252602082015260400190565b60405180910390a1565b6000546001600160a01b03163314611ba55760405162461bcd60e51b81526004016109d590613df0565b6001600160a01b038116151580611bca57506010546001600160a01b03828116911614155b611c085760405162461bcd60e51b815260206004820152600f60248201526e496e76616c6964206164647265737360881b60448201526064016109d5565b601080546001600160a01b0319166001600160a01b0383169081179091556040519081527f6de6ddf87fbce1f42220b349684d9b952eac9bffd639fd2093096032cb1d4d4e90602001610a0f565b6000546001600160a01b03163314611c805760405162461bcd60e51b81526004016109d590613df0565b4360078190556040519081527ffed9fcb0ca3d1e761a4b929792bb24082fba92dca81252646ad306d30680656690602001611b71565b6011546001600160a01b03163314611d105760405162461bcd60e51b815260206004820152601960248201527f73657453657276696365496e666f3a20464f5242494444454e0000000000000060448201526064016109d5565b6001600160a01b038216611d585760405162461bcd60e51b815260206004820152600f60248201526e496e76616c6964206164647265737360881b60448201526064016109d5565b66b1a2bc2ec500008110611dae5760405162461bcd60e51b815260206004820152601c60248201527f6665652063616e6e6f742065786365656420302e30352065746865720000000060448201526064016109d5565b601180546001600160a01b0319166001600160a01b038416908117909155601282905560408051918252602082018390527f232f2e6280d2064b1e439bf40ecdada042d84eefbb55039e4c49e8dc4f4c90c99101611072565b6000546001600160a01b03163314611e315760405162461bcd60e51b81526004016109d590613df0565b60026001541415611e545760405162461bcd60e51b81526004016109d590613e25565b600260015580611e975760405162461bcd60e51b815260206004820152600e60248201526d1a5b9d985b1a5908185b5bdd5b9d60921b60448201526064016109d5565b6016546040516370a0823160e01b81523060048201526000916001600160a01b0316906370a0823190602401602060405180830381865afa158015611ee0573d6000803e3d6000fd5b505050506040513d601f19601f82011682018060405250810190611f049190613f01565b601654909150611f1f906001600160a01b03163330856136a6565b6016546040516370a0823160e01b81523060048201526000916001600160a01b0316906370a0823190602401602060405180830381865afa158015611f68573d6000803e3d6000fd5b505050506040513d601f19601f82011682018060405250810190611f8c9190613f01565b90508181601b54611f9d9190613f37565b611fa79190613eb3565b601b5550506001805550565b6017546016546000916001600160a01b0391821691161415611fd65750601b5490565b6016546040516370a0823160e01b81523060048201526000916001600160a01b0316906370a0823190602401602060405180830381865afa15801561201f573d6000803e3d6000fd5b505050506040513d601f19601f820116820180604052508101906120439190613f01565b6015546016549192506001600160a01b039182169116141561172c57601a5481101561207157600091505090565b601a5461207e9082613eb3565b91505090565b6000546001600160a01b031633146120ae5760405162461bcd60e51b81526004016109d590613df0565b811561210f5760055481116121055760405162461bcd60e51b815260206004820152601860248201527f4e6577206c696d6974206d75737420626520686967686572000000000000000060448201526064016109d5565b6005819055612115565b60006005555b6004805460ff19168315159081179091556005546040805191825260ff909216151560208201527f19a6e21b354f2502655dd03f5ac08375f296d713847fbfbf7eec539cd22c44399101611072565b6000546001600160a01b0316331461218e5760405162461bcd60e51b81526004016109d590613df0565b60025460ff16156121d75760405162461bcd60e51b8152602060048201526013602482015272105b1c9958591e481a5b9a5d1a585b1a5e9959606a1b60448201526064016109d5565b6002805460ff19166001179055601580546001600160a01b03808d166001600160a01b031992831617909255601680548c8416921691909117905560178054831515600160a01b026001600160a81b0319909116928b169290921791909117905560088790556107d086106122845760405162461bcd60e51b8152602060048201526013602482015272496e76616c6964206465706f7369742066656560681b60448201526064016109d5565b6107d085106122cc5760405162461bcd60e51b8152602060048201526014602482015273496e76616c69642077697468647261772066656560601b60448201526064016109d5565b600e869055600f859055601080546001600160a01b031916331790556016546040805163313ce56760e01b815290516000926001600160a01b03169163313ce5679160048083019260209291908290030181865afa158015612332573d6000803e3d6000fd5b505050506040513d601f19601f820116820180604052508101906123569190613f86565b60ff169050601e81106123a45760405162461bcd60e51b815260206004820152601660248201527504d75737420626520696e666572696f7220746f2033360541b60448201526064016109d5565b6123af816028613eb3565b6123ba90600a61408d565b6013556017546012906001600160a01b03161561249657601760009054906101000a90046001600160a01b03166001600160a01b031663313ce5676040518163ffffffff1660e01b8152600401602060405180830381865afa158015612424573d6000803e3d6000fd5b505050506040513d601f19601f820116820180604052508101906124489190613f86565b60ff169050601e81106124965760405162461bcd60e51b815260206004820152601660248201527504d75737420626520696e666572696f7220746f2033360541b60448201526064016109d5565b6124a1816028613eb3565b6124ac90600a61408d565b601455600b80546001600160a01b0319166001600160a01b03881617905584516124dd90600d906020880190613a76565b5083516124f190600c906020870190613a76565b50505050505050505050505050565b600260015414156125235760405162461bcd60e51b81526004016109d590613e25565b60026001556006541580159061253a575043600654105b6125865760405162461bcd60e51b815260206004820152601a60248201527f5374616b696e67206861736e277420737461727465642079657400000000000060448201526064016109d5565b600081116125d65760405162461bcd60e51b815260206004820152601f60248201527f416d6f756e742073686f756c642062652067726561746f72207468616e20300060448201526064016109d5565b336000908152601e6020526040902060045460ff161561261d5760055481546125ff9084613f37565b111561261d5760405162461bcd60e51b81526004016109d590613f4f565b6126256131eb565b805415612787576000816001015460135460185484600001546126489190613e72565b6126529190613e91565b61265c9190613eb3565b905080156126c8578061266d611fb3565b101561268b5760405162461bcd60e51b81526004016109d590613eca565b6016546126a2906001600160a01b03163383613365565b80601b5411156126c25780601b546126ba9190613eb3565b601b556126c8565b6000601b555b6000826002015460145460195485600001546126e49190613e72565b6126ee9190613e91565b6126f89190613eb3565b90506000811180156127135750601754600160a01b900460ff165b15612784576017546001600160a01b031661275b57604051339082156108fc029083906000818181858888f19350505050158015612755573d6000803e3d6000fd5b50612772565b601754612772906001600160a01b03163383613365565b80601c546127809190613eb3565b601c555b50505b6015546040516370a0823160e01b81523060048201526000916001600160a01b0316906370a0823190602401602060405180830381865afa1580156127d0573d6000803e3d6000fd5b505050506040513d601f19601f820116820180604052508101906127f49190613f01565b60155490915061280f906001600160a01b03163330866136a6565b6015546040516370a0823160e01b81523060048201526000916001600160a01b0316906370a0823190602401602060405180830381865afa158015612858573d6000803e3d6000fd5b505050506040513d601f19601f8201168201806040525081019061287c9190613f01565b9050600061288a8383613eb3565b600e54909150156128e0576000612710600e54836128a89190613e72565b6128b29190613e91565b6010546015549192506128d2916001600160a01b03908116911683613365565b6128dc8183613eb3565b9150505b83546128ed908290613f37565b80855560135460185490916129029190613e72565b61290c9190613e91565b600185015560145460195485546129239190613e72565b61292d9190613e91565b6002850155601a54612940908290613f37565b601a5560405181815233907fe1fffcc4923d04b559f4d29a8bfc6cda04eb5b0d3c460751c2402c5c5cc9109c9060200160405180910390a2505060018055505050565b600260015414156129a65760405162461bcd60e51b81526004016109d590613e25565b6002600155336000908152601e602052604090206129c26133cd565b6129ca6131eb565b80546129d6575061160f565b6000816001015460135460185484600001546129f29190613e72565b6129fc9190613e91565b612a069190613eb3565b90508015611a2d5780612a17611fb3565b1015612a355760405162461bcd60e51b81526004016109d590613eca565b601654612a4c906001600160a01b03163383613365565b80601b541115612a6c5780601b54612a649190613eb3565b601b55611a2d565b6000601b556013546018548354611a3f9190613e72565b600d8181548110610a2a57600080fd5b6001600160a01b0381166000908152601e60205260408120601a54612abb5750600092915050565b6000612ac561162e565b6015546040516370a0823160e01b81523060048201529192506000916001600160a01b03909116906370a0823190602401602060405180830381865afa158015612b13573d6000803e3d6000fd5b505050506040513d601f19601f82011682018060405250810190612b379190613f01565b6017546015549192506001600160a01b0391821691161415612b6057612b5d8282613eb3565b90505b600081601454601c5485612b749190613eb3565b612b7e9190613e72565b612b889190613e91565b601954612b959190613f37565b905060008460020154601454838760000154612bb19190613e72565b612bbb9190613e91565b612bc59190613eb3565b979650505050505050565b6000546001600160a01b03163314612bfa5760405162461bcd60e51b81526004016109d590613df0565b6107d08610612c415760405162461bcd60e51b8152602060048201526013602482015272496e76616c6964206465706f7369742066656560681b60448201526064016109d5565b6107d08510612c895760405162461bcd60e51b8152602060048201526014602482015273496e76616c69642077697468647261772066656560601b60448201526064016109d5565b6103e3841115612cdb5760405162461bcd60e51b815260206004820152601860248201527f5f736c697070616765466163746f7220746f6f2068696768000000000000000060448201526064016109d5565b600e869055600f859055600a849055600b80546001600160a01b0319166001600160a01b0385161790558051612d1890600c906020840190613a76565b508151612d2c90600d906020850190613a76565b507fe4ca6c7437a74a9ccfa4c03f7fadad98aa07cae9f4e4f35d7e294f87e4e81e33868686868686604051612d66969594939291906140dd565b60405180910390a1505050505050565b60026001541415612d995760405162461bcd60e51b81526004016109d590613e25565b60026001818155336000908152601e602052604081208054828255928101829055928301558015612ded57601554612ddb906001600160a01b03163383613365565b80601a54612de99190613eb3565b601a555b815460405190815233907f5fafa99d0643513820be26656b45130b01e1c03062e1266bf36f88cbd3bd96959060200160405180910390a2505060018055565b60026001541415612e4f5760405162461bcd60e51b81526004016109d590613e25565b60026001908155601754600160a01b900460ff16151514612ea35760405162461bcd60e51b815260206004820152600e60248201526d4e6f207265666c656374696f6e7360901b60448201526064016109d5565b336000908152601e60205260409020612eba6133cd565b612ec26131eb565b8054612ece575061160f565b600081600201546014546019548460000154612eea9190613e72565b612ef49190613e91565b612efe9190613eb3565b905080156115e8576017546001600160a01b0316612f4957604051339082156108fc029083906000818181858888f19350505050158015612f43573d6000803e3d6000fd5b50612f60565b601754612f60906001600160a01b03163383613365565b80601c54612f6e9190613eb3565b601c5560145460195483546115fa9190613e72565b6000546001600160a01b03163314612fad5760405162461bcd60e51b81526004016109d590613df0565b6001600160a01b0381166130125760405162461bcd60e51b815260206004820152602660248201527f4f776e61626c653a206e6577206f776e657220697320746865207a65726f206160448201526564647265737360d01b60648201526084016109d5565b610e8381613656565b6001600160a01b0381166000908152601e60205260408120601854600954431180156130485750601a5415155b801561305657506000600954115b156130aa576000613069600954436136e4565b905060006008548261307b9190613e72565b9050601a546013548261308e9190613e72565b6130989190613e91565b6018546130a59190613f37565b925050505b600182015460135483546130bf908490613e72565b6130c99190613e91565b6130d39190613eb3565b949350505050565b6000546001600160a01b031633146131055760405162461bcd60e51b81526004016109d590613df0565b601e81101561314c5760405162461bcd60e51b81526020600482015260136024820152721b1bddd95c881b1a5b5a5d081c995858da1959606a1b60448201526064016109d5565b6003819055600654156131bb5760035461316890617080613e72565b6006546131759190613f37565b600781905543106131bb5760405162461bcd60e51b815260206004820152601060248201526f34b73b30b634b210323ab930ba34b7b760811b60448201526064016109d5565b6040518181527f91abcc2d6823e3a3f11d31b208dd3065d2c6a791f1c7c9fe96a42ce12897eac590602001610a0f565b6000601a541180156132065750601754600160a01b900460ff165b156132eb57600061321561162e565b6015546040516370a0823160e01b81523060048201529192506000916001600160a01b03909116906370a0823190602401602060405180830381865afa158015613263573d6000803e3d6000fd5b505050506040513d601f19601f820116820180604052508101906132879190613f01565b6017546015549192506001600160a01b03918216911614156132b0576132ad8282613eb3565b90505b80601454601c54846132c29190613eb3565b6132cc9190613e72565b6132d69190613e91565b6019546132e39190613f37565b60195550601c555b600954431115806132fc5750600954155b1561330357565b601a546133105743600955565b600061331e600954436136e4565b90506000600854826133309190613e72565b9050601a54601354826133439190613e72565b61334d9190613e91565b60185461335a9190613f37565b601855505043600955565b6040516001600160a01b0383166024820152604481018290526133c890849063a9059cbb60e01b906064015b60408051601f198184030181529190526020810180516001600160e01b03166001600160e01b031990931692909217909152613725565b505050565b6012543410156134335760405162461bcd60e51b815260206004820152602b60248201527f73686f756c642070617920736d616c6c2067617320746f20636f6d706f756e6460448201526a081bdc881a185c9d995cdd60aa1b60648201526084016109d5565b6011546012546040516001600160a01b039092169181156108fc0291906000818181858888f1935050505015801561346f573d6000803e3d6000fd5b50601254341115611a885760125433906108fc9061348d9034613eb3565b6040518115909202916000818181858888f19350505050158015610e83573d6000803e3d6000fd5b600b5460405163d06ca61f60e01b81526000916001600160a01b03169063d06ca61f906134e8908790879060040161412f565b600060405180830381865afa158015613505573d6000803e3d6000fd5b505050506040513d6000823e601f3d908101601f1916820160405261352d9190810190614148565b9050600081600183516135409190613eb3565b81518110613550576135506141ce565b602002602001015190506135a7600b60009054906101000a90046001600160a01b03168686600081518110613587576135876141ce565b60200260200101516001600160a01b03166137f79092919063ffffffff16565b600b54600a546001600160a01b03909116906338ed17399087906103e8906135cf9086613e72565b6135d99190613e91565b87876135e742610258613f37565b6040518663ffffffff1660e01b81526004016136079594939291906141e4565b6000604051808303816000875af1158015613626573d6000803e3d6000fd5b505050506040513d6000823e601f3d908101601f1916820160405261364e9190810190614148565b505050505050565b600080546001600160a01b038381166001600160a01b0319831681178455604051919092169283917f8be0079c531659141344cd1fd0a4f28419497f9722a3daafe3b4186f6b6457e09190a35050565b6040516001600160a01b03808516602483015283166044820152606481018290526136de9085906323b872dd60e01b90608401613391565b50505050565b60006007548211613700576136f98383613eb3565b905061371f565b60075483106137115750600061371f565b826007546136f99190613eb3565b92915050565b600061377a826040518060400160405280602081526020017f5361666545524332303a206c6f772d6c6576656c2063616c6c206661696c6564815250856001600160a01b031661390c9092919063ffffffff16565b8051909150156133c857808060200190518101906137989190614220565b6133c85760405162461bcd60e51b815260206004820152602a60248201527f5361666545524332303a204552433230206f7065726174696f6e20646964206e6044820152691bdd081cdd58d8d9595960b21b60648201526084016109d5565b8015806138715750604051636eb1769f60e11b81523060048201526001600160a01b03838116602483015284169063dd62ed3e90604401602060405180830381865afa15801561384b573d6000803e3d6000fd5b505050506040513d601f19601f8201168201806040525081019061386f9190613f01565b155b6138dc5760405162461bcd60e51b815260206004820152603660248201527f5361666545524332303a20617070726f76652066726f6d206e6f6e2d7a65726f60448201527520746f206e6f6e2d7a65726f20616c6c6f77616e636560501b60648201526084016109d5565b6040516001600160a01b0383166024820152604481018290526133c890849063095ea7b360e01b90606401613391565b606061391b8484600085613925565b90505b9392505050565b6060824710156139865760405162461bcd60e51b815260206004820152602660248201527f416464726573733a20696e73756666696369656e742062616c616e636520666f6044820152651c8818d85b1b60d21b60648201526084016109d5565b843b6139d45760405162461bcd60e51b815260206004820152601d60248201527f416464726573733a2063616c6c20746f206e6f6e2d636f6e747261637400000060448201526064016109d5565b600080866001600160a01b031685876040516139f09190614269565b60006040518083038185875af1925050503d8060008114613a2d576040519150601f19603f3d011682016040523d82523d6000602084013e613a32565b606091505b5091509150612bc582828660608315613a4c57508161391e565b825115613a5c5782518084602001fd5b8160405162461bcd60e51b81526004016109d59190614285565b828054828255906000526020600020908101928215613acb579160200282015b82811115613acb57825182546001600160a01b0319166001600160a01b03909116178255602090920191600190910190613a96565b50613ad7929150613adb565b5090565b5b80821115613ad75760008155600101613adc565b600060208284031215613b0257600080fd5b5035919050565b6001600160a01b0381168114610e8357600080fd5b803561172c81613b09565b600060208284031215613b3b57600080fd5b813561391e81613b09565b60008060408385031215613b5957600080fd5b8235613b6481613b09565b946020939093013593505050565b8015158114610e8357600080fd5b803561172c81613b72565b60008060408385031215613b9e57600080fd5b8235613b6481613b72565b634e487b7160e01b600052604160045260246000fd5b604051601f8201601f1916810167ffffffffffffffff81118282101715613be857613be8613ba9565b604052919050565b600067ffffffffffffffff821115613c0a57613c0a613ba9565b5060051b60200190565b600082601f830112613c2557600080fd5b81356020613c3a613c3583613bf0565b613bbf565b82815260059290921b84018101918181019086841115613c5957600080fd5b8286015b84811015613c7d578035613c7081613b09565b8352918301918301613c5d565b509695505050505050565b6000806000806000806000806000806101408b8d031215613ca857600080fd5b613cb18b613b1e565b9950613cbf60208c01613b1e565b9850613ccd60408c01613b1e565b975060608b0135965060808b0135955060a08b01359450613cf060c08c01613b1e565b935060e08b013567ffffffffffffffff80821115613d0d57600080fd5b613d198e838f01613c14565b94506101008d0135915080821115613d3057600080fd5b50613d3d8d828e01613c14565b925050613d4d6101208c01613b80565b90509295989b9194979a5092959850565b60008060008060008060c08789031215613d7757600080fd5b8635955060208701359450604087013593506060870135613d9781613b09565b9250608087013567ffffffffffffffff80821115613db457600080fd5b613dc08a838b01613c14565b935060a0890135915080821115613dd657600080fd5b50613de389828a01613c14565b9150509295509295509295565b6020808252818101527f4f776e61626c653a2063616c6c6572206973206e6f7420746865206f776e6572604082015260600190565b6020808252601f908201527f5265656e7472616e637947756172643a207265656e7472616e742063616c6c00604082015260600190565b634e487b7160e01b600052601160045260246000fd5b6000816000190483118215151615613e8c57613e8c613e5c565b500290565b600082613eae57634e487b7160e01b600052601260045260246000fd5b500490565b600082821015613ec557613ec5613e5c565b500390565b6020808252601a908201527f496e73756666696369656e742072657761726420746f6b656e73000000000000604082015260600190565b600060208284031215613f1357600080fd5b5051919050565b600060208284031215613f2c57600080fd5b815161391e81613b09565b60008219821115613f4a57613f4a613e5c565b500190565b60208082526017908201527f5573657220616d6f756e742061626f7665206c696d6974000000000000000000604082015260600190565b600060208284031215613f9857600080fd5b815160ff8116811461391e57600080fd5b600181815b80851115613fe4578160001904821115613fca57613fca613e5c565b80851615613fd757918102915b93841c9390800290613fae565b509250929050565b600082613ffb5750600161371f565b816140085750600061371f565b816001811461401e576002811461402857614044565b600191505061371f565b60ff84111561403957614039613e5c565b50506001821b61371f565b5060208310610133831016604e8410600b8410161715614067575081810a61371f565b6140718383613fa9565b806000190482111561408557614085613e5c565b029392505050565b600061391e8383613fec565b600081518084526020808501945080840160005b838110156140d25781516001600160a01b0316875295820195908201906001016140ad565b509495945050505050565b86815285602082015284604082015260018060a01b038416606082015260c06080820152600061411060c0830185614099565b82810360a08401526141228185614099565b9998505050505050505050565b82815260406020820152600061391b6040830184614099565b6000602080838503121561415b57600080fd5b825167ffffffffffffffff81111561417257600080fd5b8301601f8101851361418357600080fd5b8051614191613c3582613bf0565b81815260059190911b820183019083810190878311156141b057600080fd5b928401925b82841015612bc5578351825292840192908401906141b5565b634e487b7160e01b600052603260045260246000fd5b85815284602082015260a06040820152600061420360a0830186614099565b6001600160a01b0394909416606083015250608001529392505050565b60006020828403121561423257600080fd5b815161391e81613b72565b60005b83811015614258578181015183820152602001614240565b838111156136de5750506000910152565b6000825161427b81846020870161423d565b9190910192915050565b60208152600082518060208401526142a481604085016020870161423d565b601f01601f1916919091016040019291505056fea2646970667358221220ee4901a78e37649fd609a5903084018e709ce738fa86b34267bbbb55ce29888e64736f6c634300080b0033",
  "linkReferences": {},
  "deployedLinkReferences": {}
}